{
  "contractName": "WalletManager",
  "abi": [
    {
      "anonymous": false,
      "inputs": [
        {
          "indexed": true,
          "internalType": "address",
          "name": "wallet",
          "type": "address"
        },
        {
          "indexed": false,
          "internalType": "string",
          "name": "publicKey",
          "type": "string"
        }
      ],
      "name": "WalletRegistered",
      "type": "event"
    },
    {
      "inputs": [
        {
          "internalType": "address",
          "name": "",
          "type": "address"
        }
      ],
      "name": "registered",
      "outputs": [
        {
          "internalType": "bool",
          "name": "",
          "type": "bool"
        }
      ],
      "stateMutability": "view",
      "type": "function"
    },
    {
      "inputs": [
        {
          "internalType": "address",
          "name": "",
          "type": "address"
        }
      ],
      "name": "walletPublicKeys",
      "outputs": [
        {
          "internalType": "string",
          "name": "",
          "type": "string"
        }
      ],
      "stateMutability": "view",
      "type": "function"
    },
    {
      "inputs": [
        {
          "internalType": "string",
          "name": "publicKey",
          "type": "string"
        }
      ],
      "name": "registerWallet",
      "outputs": [],
      "stateMutability": "nonpayable",
      "type": "function"
    },
    {
      "inputs": [
        {
          "internalType": "address",
          "name": "wallet",
          "type": "address"
        }
      ],
      "name": "isWalletRegistered",
      "outputs": [
        {
          "internalType": "bool",
          "name": "",
          "type": "bool"
        }
      ],
      "stateMutability": "view",
      "type": "function"
    }
  ],
  "bytecode": "0x608060405234801561000f575f80fd5b506109978061001d5f395ff3fe608060405234801561000f575f80fd5b506004361061004a575f3560e01c806374b6068f1461004e5780637f247e491461006a578063b2dd5c071461009a578063c0689f47146100ca575b5f80fd5b610068600480360381019061006391906103e9565b6100fa565b005b610084600480360381019061007f919061048e565b610278565b60405161009191906104d3565b60405180910390f35b6100b460048036038101906100af919061048e565b6102c9565b6040516100c191906104d3565b60405180910390f35b6100e460048036038101906100df919061048e565b6102e5565b6040516100f19190610576565b60405180910390f35b5f803373ffffffffffffffffffffffffffffffffffffffff1673ffffffffffffffffffffffffffffffffffffffff1681526020019081526020015f205f9054906101000a900460ff1615610183576040517f08c379a000000000000000000000000000000000000000000000000000000000815260040161017a906105e0565b60405180910390fd5b60015f803373ffffffffffffffffffffffffffffffffffffffff1673ffffffffffffffffffffffffffffffffffffffff1681526020019081526020015f205f6101000a81548160ff021916908315150217905550818160015f3373ffffffffffffffffffffffffffffffffffffffff1673ffffffffffffffffffffffffffffffffffffffff1681526020019081526020015f209182610223929190610838565b503373ffffffffffffffffffffffffffffffffffffffff167ffd8c98a09da86eba82da3f4067f073c6ef0f7138bc302e189386df00b87b836c838360405161026c92919061093f565b60405180910390a25050565b5f805f8373ffffffffffffffffffffffffffffffffffffffff1673ffffffffffffffffffffffffffffffffffffffff1681526020019081526020015f205f9054906101000a900460ff169050919050565b5f602052805f5260405f205f915054906101000a900460ff1681565b6001602052805f5260405f205f91509050805461030190610662565b80601f016020809104026020016040519081016040528092919081815260200182805461032d90610662565b80156103785780601f1061034f57610100808354040283529160200191610378565b820191905f5260205f20905b81548152906001019060200180831161035b57829003601f168201915b505050505081565b5f80fd5b5f80fd5b5f80fd5b5f80fd5b5f80fd5b5f8083601f8401126103a9576103a8610388565b5b8235905067ffffffffffffffff8111156103c6576103c561038c565b5b6020830191508360018202830111156103e2576103e1610390565b5b9250929050565b5f80602083850312156103ff576103fe610380565b5b5f83013567ffffffffffffffff81111561041c5761041b610384565b5b61042885828601610394565b92509250509250929050565b5f73ffffffffffffffffffffffffffffffffffffffff82169050919050565b5f61045d82610434565b9050919050565b61046d81610453565b8114610477575f80fd5b50565b5f8135905061048881610464565b92915050565b5f602082840312156104a3576104a2610380565b5b5f6104b08482850161047a565b91505092915050565b5f8115159050919050565b6104cd816104b9565b82525050565b5f6020820190506104e65f8301846104c4565b92915050565b5f81519050919050565b5f82825260208201905092915050565b5f5b83811015610523578082015181840152602081019050610508565b5f8484015250505050565b5f601f19601f8301169050919050565b5f610548826104ec565b61055281856104f6565b9350610562818560208601610506565b61056b8161052e565b840191505092915050565b5f6020820190508181035f83015261058e818461053e565b905092915050565b7f57616c6c657420616c72656164792072656769737465726564000000000000005f82015250565b5f6105ca6019836104f6565b91506105d582610596565b602082019050919050565b5f6020820190508181035f8301526105f7816105be565b9050919050565b5f82905092915050565b7f4e487b71000000000000000000000000000000000000000000000000000000005f52604160045260245ffd5b7f4e487b71000000000000000000000000000000000000000000000000000000005f52602260045260245ffd5b5f600282049050600182168061067957607f821691505b60208210810361068c5761068b610635565b5b50919050565b5f819050815f5260205f209050919050565b5f6020601f8301049050919050565b5f82821b905092915050565b5f600883026106ee7fffffffffffffffffffffffffffffffffffffffffffffffffffffffffffffffff826106b3565b6106f886836106b3565b95508019841693508086168417925050509392505050565b5f819050919050565b5f819050919050565b5f61073c61073761073284610710565b610719565b610710565b9050919050565b5f819050919050565b61075583610722565b61076961076182610743565b8484546106bf565b825550505050565b5f90565b61077d610771565b61078881848461074c565b505050565b5b818110156107ab576107a05f82610775565b60018101905061078e565b5050565b601f8211156107f0576107c181610692565b6107ca846106a4565b810160208510156107d9578190505b6107ed6107e5856106a4565b83018261078d565b50505b505050565b5f82821c905092915050565b5f6108105f19846008026107f5565b1980831691505092915050565b5f6108288383610801565b9150826002028217905092915050565b61084283836105fe565b67ffffffffffffffff81111561085b5761085a610608565b5b6108658254610662565b6108708282856107af565b5f601f83116001811461089d575f841561088b578287013590505b610895858261081d565b8655506108fc565b601f1984166108ab86610692565b5f5b828110156108d2578489013582556001820191506020850194506020810190506108ad565b868310156108ef57848901356108eb601f891682610801565b8355505b6001600288020188555050505b50505050505050565b828183375f83830152505050565b5f61091e83856104f6565b935061092b838584610905565b6109348361052e565b840190509392505050565b5f6020820190508181035f830152610958818486610913565b9050939250505056fea26469706673582212204e68328575575db04c83df6f5f2b381872eaa8180a539863e0d3d4f8605d11ff64736f6c63430008150033",
  "immutableReferences": {},
  "source": "// SPDX-License-Identifier: MIT\r\npragma solidity ^0.8.21;\r\n\r\ncontract WalletManager {\r\n    //   \r\n    mapping(address => bool) public registered;\r\n    \r\n    //     (    )\r\n    mapping(address => string) public walletPublicKeys;\r\n    \r\n    //   \r\n    event WalletRegistered(address indexed wallet, string publicKey);\r\n    \r\n    /**\r\n     * @dev    .\r\n     * MetaMask    , msg.sender    .\r\n     * @param publicKey    (  )\r\n     */\r\n    function registerWallet(string calldata publicKey) external {\r\n        require(!registered[msg.sender], \"Wallet already registered\");\r\n        \r\n        registered[msg.sender] = true;\r\n        walletPublicKeys[msg.sender] = publicKey;\r\n        \r\n        emit WalletRegistered(msg.sender, publicKey);\r\n    }\r\n    \r\n    /**\r\n     * @dev     .\r\n     * @param wallet   \r\n     * @return bool  \r\n     */\r\n    function isWalletRegistered(address wallet) external view returns (bool) {\r\n        return registered[wallet];\r\n    }\r\n}\r\n",
  "sourcePath": "C:\\ssafy\\S12P21C109\\nft\\contracts\\contracts\\WalletManager.sol",
  "compiler": {
    "name": "solc",
    "version": "0.8.21+commit.d9974bed.Emscripten.clang"
  },
  "schemaVersion": "3.4.16",
  "updatedAt": "2025-03-16T06:44:06.261Z",
  "devdoc": {
    "kind": "dev",
    "methods": {
      "isWalletRegistered(address)": {
        "details": "    .",
        "params": {
          "wallet": "  "
        },
        "returns": {
          "_0": "bool  "
        }
      },
      "registerWallet(string)": {
        "details": "   . MetaMask    , msg.sender    .",
        "params": {
          "publicKey": "   (  )"
        }
      }
    },
    "version": 1
  },
  "userdoc": {
    "kind": "user",
    "methods": {},
    "version": 1
  }
}