{
  "contractName": "NFTMarketplace",
  "abi": [
    {
      "inputs": [],
      "stateMutability": "nonpayable",
      "type": "constructor"
    },
    {
      "anonymous": false,
      "inputs": [
        {
          "indexed": true,
          "internalType": "address",
          "name": "owner",
          "type": "address"
        },
        {
          "indexed": true,
          "internalType": "address",
          "name": "approved",
          "type": "address"
        },
        {
          "indexed": true,
          "internalType": "uint256",
          "name": "tokenId",
          "type": "uint256"
        }
      ],
      "name": "Approval",
      "type": "event"
    },
    {
      "anonymous": false,
      "inputs": [
        {
          "indexed": true,
          "internalType": "address",
          "name": "owner",
          "type": "address"
        },
        {
          "indexed": true,
          "internalType": "address",
          "name": "operator",
          "type": "address"
        },
        {
          "indexed": false,
          "internalType": "bool",
          "name": "approved",
          "type": "bool"
        }
      ],
      "name": "ApprovalForAll",
      "type": "event"
    },
    {
      "anonymous": false,
      "inputs": [
        {
          "indexed": false,
          "internalType": "uint256",
          "name": "_fromTokenId",
          "type": "uint256"
        },
        {
          "indexed": false,
          "internalType": "uint256",
          "name": "_toTokenId",
          "type": "uint256"
        }
      ],
      "name": "BatchMetadataUpdate",
      "type": "event"
    },
    {
      "anonymous": false,
      "inputs": [
        {
          "indexed": false,
          "internalType": "uint256",
          "name": "_tokenId",
          "type": "uint256"
        }
      ],
      "name": "MetadataUpdate",
      "type": "event"
    },
    {
      "anonymous": false,
      "inputs": [
        {
          "indexed": false,
          "internalType": "uint256",
          "name": "tokenId",
          "type": "uint256"
        },
        {
          "indexed": false,
          "internalType": "address",
          "name": "seller",
          "type": "address"
        },
        {
          "indexed": false,
          "internalType": "uint256",
          "name": "price",
          "type": "uint256"
        }
      ],
      "name": "NFTListed",
      "type": "event"
    },
    {
      "anonymous": false,
      "inputs": [
        {
          "indexed": true,
          "internalType": "address",
          "name": "to",
          "type": "address"
        },
        {
          "indexed": false,
          "internalType": "uint256",
          "name": "tokenId",
          "type": "uint256"
        },
        {
          "indexed": false,
          "internalType": "string",
          "name": "tokenURI",
          "type": "string"
        }
      ],
      "name": "NFTMinted",
      "type": "event"
    },
    {
      "anonymous": false,
      "inputs": [
        {
          "indexed": false,
          "internalType": "uint256",
          "name": "tokenId",
          "type": "uint256"
        },
        {
          "indexed": false,
          "internalType": "address",
          "name": "buyer",
          "type": "address"
        },
        {
          "indexed": false,
          "internalType": "uint256",
          "name": "price",
          "type": "uint256"
        }
      ],
      "name": "NFTSold",
      "type": "event"
    },
    {
      "anonymous": false,
      "inputs": [
        {
          "indexed": true,
          "internalType": "address",
          "name": "previousOwner",
          "type": "address"
        },
        {
          "indexed": true,
          "internalType": "address",
          "name": "newOwner",
          "type": "address"
        }
      ],
      "name": "OwnershipTransferred",
      "type": "event"
    },
    {
      "anonymous": false,
      "inputs": [
        {
          "indexed": true,
          "internalType": "address",
          "name": "from",
          "type": "address"
        },
        {
          "indexed": true,
          "internalType": "address",
          "name": "to",
          "type": "address"
        },
        {
          "indexed": true,
          "internalType": "uint256",
          "name": "tokenId",
          "type": "uint256"
        }
      ],
      "name": "Transfer",
      "type": "event"
    },
    {
      "inputs": [
        {
          "internalType": "address",
          "name": "to",
          "type": "address"
        },
        {
          "internalType": "uint256",
          "name": "tokenId",
          "type": "uint256"
        }
      ],
      "name": "approve",
      "outputs": [],
      "stateMutability": "nonpayable",
      "type": "function"
    },
    {
      "inputs": [
        {
          "internalType": "address",
          "name": "owner",
          "type": "address"
        }
      ],
      "name": "balanceOf",
      "outputs": [
        {
          "internalType": "uint256",
          "name": "",
          "type": "uint256"
        }
      ],
      "stateMutability": "view",
      "type": "function"
    },
    {
      "inputs": [
        {
          "internalType": "uint256",
          "name": "tokenId",
          "type": "uint256"
        }
      ],
      "name": "getApproved",
      "outputs": [
        {
          "internalType": "address",
          "name": "",
          "type": "address"
        }
      ],
      "stateMutability": "view",
      "type": "function"
    },
    {
      "inputs": [
        {
          "internalType": "address",
          "name": "owner",
          "type": "address"
        },
        {
          "internalType": "address",
          "name": "operator",
          "type": "address"
        }
      ],
      "name": "isApprovedForAll",
      "outputs": [
        {
          "internalType": "bool",
          "name": "",
          "type": "bool"
        }
      ],
      "stateMutability": "view",
      "type": "function"
    },
    {
      "inputs": [
        {
          "internalType": "uint256",
          "name": "",
          "type": "uint256"
        }
      ],
      "name": "listings",
      "outputs": [
        {
          "internalType": "address",
          "name": "seller",
          "type": "address"
        },
        {
          "internalType": "uint256",
          "name": "price",
          "type": "uint256"
        },
        {
          "internalType": "bool",
          "name": "isListed",
          "type": "bool"
        }
      ],
      "stateMutability": "view",
      "type": "function"
    },
    {
      "inputs": [],
      "name": "name",
      "outputs": [
        {
          "internalType": "string",
          "name": "",
          "type": "string"
        }
      ],
      "stateMutability": "view",
      "type": "function"
    },
    {
      "inputs": [],
      "name": "owner",
      "outputs": [
        {
          "internalType": "address",
          "name": "",
          "type": "address"
        }
      ],
      "stateMutability": "view",
      "type": "function"
    },
    {
      "inputs": [
        {
          "internalType": "uint256",
          "name": "tokenId",
          "type": "uint256"
        }
      ],
      "name": "ownerOf",
      "outputs": [
        {
          "internalType": "address",
          "name": "",
          "type": "address"
        }
      ],
      "stateMutability": "view",
      "type": "function"
    },
    {
      "inputs": [],
      "name": "renounceOwnership",
      "outputs": [],
      "stateMutability": "nonpayable",
      "type": "function"
    },
    {
      "inputs": [
        {
          "internalType": "uint256",
          "name": "",
          "type": "uint256"
        }
      ],
      "name": "royaltyInfoByToken",
      "outputs": [
        {
          "internalType": "address",
          "name": "originalCreator",
          "type": "address"
        },
        {
          "internalType": "address",
          "name": "registrant",
          "type": "address"
        },
        {
          "internalType": "address",
          "name": "adminWallet",
          "type": "address"
        }
      ],
      "stateMutability": "view",
      "type": "function"
    },
    {
      "inputs": [
        {
          "internalType": "address",
          "name": "from",
          "type": "address"
        },
        {
          "internalType": "address",
          "name": "to",
          "type": "address"
        },
        {
          "internalType": "uint256",
          "name": "tokenId",
          "type": "uint256"
        }
      ],
      "name": "safeTransferFrom",
      "outputs": [],
      "stateMutability": "nonpayable",
      "type": "function"
    },
    {
      "inputs": [
        {
          "internalType": "address",
          "name": "from",
          "type": "address"
        },
        {
          "internalType": "address",
          "name": "to",
          "type": "address"
        },
        {
          "internalType": "uint256",
          "name": "tokenId",
          "type": "uint256"
        },
        {
          "internalType": "bytes",
          "name": "data",
          "type": "bytes"
        }
      ],
      "name": "safeTransferFrom",
      "outputs": [],
      "stateMutability": "nonpayable",
      "type": "function"
    },
    {
      "inputs": [
        {
          "internalType": "address",
          "name": "operator",
          "type": "address"
        },
        {
          "internalType": "bool",
          "name": "approved",
          "type": "bool"
        }
      ],
      "name": "setApprovalForAll",
      "outputs": [],
      "stateMutability": "nonpayable",
      "type": "function"
    },
    {
      "inputs": [],
      "name": "symbol",
      "outputs": [
        {
          "internalType": "string",
          "name": "",
          "type": "string"
        }
      ],
      "stateMutability": "view",
      "type": "function"
    },
    {
      "inputs": [
        {
          "internalType": "uint256",
          "name": "index",
          "type": "uint256"
        }
      ],
      "name": "tokenByIndex",
      "outputs": [
        {
          "internalType": "uint256",
          "name": "",
          "type": "uint256"
        }
      ],
      "stateMutability": "view",
      "type": "function"
    },
    {
      "inputs": [
        {
          "internalType": "address",
          "name": "owner",
          "type": "address"
        },
        {
          "internalType": "uint256",
          "name": "index",
          "type": "uint256"
        }
      ],
      "name": "tokenOfOwnerByIndex",
      "outputs": [
        {
          "internalType": "uint256",
          "name": "",
          "type": "uint256"
        }
      ],
      "stateMutability": "view",
      "type": "function"
    },
    {
      "inputs": [],
      "name": "totalSupply",
      "outputs": [
        {
          "internalType": "uint256",
          "name": "",
          "type": "uint256"
        }
      ],
      "stateMutability": "view",
      "type": "function"
    },
    {
      "inputs": [
        {
          "internalType": "address",
          "name": "from",
          "type": "address"
        },
        {
          "internalType": "address",
          "name": "to",
          "type": "address"
        },
        {
          "internalType": "uint256",
          "name": "tokenId",
          "type": "uint256"
        }
      ],
      "name": "transferFrom",
      "outputs": [],
      "stateMutability": "nonpayable",
      "type": "function"
    },
    {
      "inputs": [
        {
          "internalType": "address",
          "name": "newOwner",
          "type": "address"
        }
      ],
      "name": "transferOwnership",
      "outputs": [],
      "stateMutability": "nonpayable",
      "type": "function"
    },
    {
      "inputs": [
        {
          "internalType": "address",
          "name": "to",
          "type": "address"
        },
        {
          "internalType": "string",
          "name": "_tokenURI",
          "type": "string"
        },
        {
          "internalType": "address",
          "name": "originalCreator",
          "type": "address"
        },
        {
          "internalType": "address",
          "name": "registrant",
          "type": "address"
        },
        {
          "internalType": "address",
          "name": "adminWallet",
          "type": "address"
        }
      ],
      "name": "mint",
      "outputs": [
        {
          "internalType": "uint256",
          "name": "",
          "type": "uint256"
        }
      ],
      "stateMutability": "nonpayable",
      "type": "function"
    },
    {
      "inputs": [
        {
          "internalType": "uint256",
          "name": "tokenId",
          "type": "uint256"
        },
        {
          "internalType": "uint256",
          "name": "price",
          "type": "uint256"
        }
      ],
      "name": "listNFT",
      "outputs": [],
      "stateMutability": "nonpayable",
      "type": "function"
    },
    {
      "inputs": [
        {
          "internalType": "uint256",
          "name": "tokenId",
          "type": "uint256"
        }
      ],
      "name": "isListed",
      "outputs": [
        {
          "internalType": "bool",
          "name": "",
          "type": "bool"
        }
      ],
      "stateMutability": "view",
      "type": "function"
    },
    {
      "inputs": [
        {
          "internalType": "uint256",
          "name": "tokenId",
          "type": "uint256"
        }
      ],
      "name": "buyNFT",
      "outputs": [],
      "stateMutability": "payable",
      "type": "function"
    },
    {
      "inputs": [
        {
          "internalType": "bytes4",
          "name": "interfaceId",
          "type": "bytes4"
        }
      ],
      "name": "supportsInterface",
      "outputs": [
        {
          "internalType": "bool",
          "name": "",
          "type": "bool"
        }
      ],
      "stateMutability": "view",
      "type": "function"
    },
    {
      "inputs": [
        {
          "internalType": "uint256",
          "name": "tokenId",
          "type": "uint256"
        }
      ],
      "name": "tokenURI",
      "outputs": [
        {
          "internalType": "string",
          "name": "",
          "type": "string"
        }
      ],
      "stateMutability": "view",
      "type": "function"
    }
  ],
  "bytecode": "0x60806040523480156200001157600080fd5b5060408051808201825260098082526821b430b4b73a37b7b760b91b602080840182905284518086019095529184529083015290600062000053838262000180565b50600162000062828262000180565b5050506200007f620000796200008560201b60201c565b62000089565b6200024c565b3390565b600b80546001600160a01b038381166001600160a01b0319831681179093556040519116919082907f8be0079c531659141344cd1fd0a4f28419497f9722a3daafe3b4186f6b6457e090600090a35050565b634e487b7160e01b600052604160045260246000fd5b600181811c908216806200010657607f821691505b6020821081036200012757634e487b7160e01b600052602260045260246000fd5b50919050565b601f8211156200017b57600081815260208120601f850160051c81016020861015620001565750805b601f850160051c820191505b81811015620001775782815560010162000162565b5050505b505050565b81516001600160401b038111156200019c576200019c620000db565b620001b481620001ad8454620000f1565b846200012d565b602080601f831160018114620001ec5760008415620001d35750858301515b600019600386901b1c1916600185901b17855562000177565b600085815260208120601f198616915b828110156200021d57888601518255948401946001909101908401620001fc565b50858210156200023c5787850151600019600388901b60f8161c191681555b5050505050600190811b01905550565b612515806200025c6000396000f3fe6080604052600436106101665760003560e01c806370a08231116100d1578063b88d4fde1161008a578063de74e57b11610064578063de74e57b14610469578063e985e9c5146104d9578063f2fde38b14610522578063fcce48831461054257600080fd5b8063b88d4fde14610409578063c6a8aecc14610429578063c87b56dd1461044957600080fd5b806370a0823114610361578063715018a6146103815780638da5cb5b1461039657806394383f14146103b457806395d89b41146103d4578063a22cb465146103e957600080fd5b80632e39c554116101235780632e39c5541461025b5780632f745c59146102ce57806342842e0e146102ee5780634f6ccce71461030e57806351ed82881461032e5780636352211e1461034157600080fd5b806301ffc9a71461016b57806306fdde03146101a0578063081812fc146101c2578063095ea7b3146101fa57806318160ddd1461021c57806323b872dd1461023b575b600080fd5b34801561017757600080fd5b5061018b610186366004611e07565b610575565b60405190151581526020015b60405180910390f35b3480156101ac57600080fd5b506101b5610586565b6040516101979190611e74565b3480156101ce57600080fd5b506101e26101dd366004611e87565b610618565b6040516001600160a01b039091168152602001610197565b34801561020657600080fd5b5061021a610215366004611ebc565b61063f565b005b34801561022857600080fd5b506008545b604051908152602001610197565b34801561024757600080fd5b5061021a610256366004611ee6565b610759565b34801561026757600080fd5b506102a4610276366004611e87565b600e602052600090815260409020805460018201546002909201546001600160a01b03918216928216911683565b604080516001600160a01b0394851681529284166020840152921691810191909152606001610197565b3480156102da57600080fd5b5061022d6102e9366004611ebc565b61078a565b3480156102fa57600080fd5b5061021a610309366004611ee6565b610820565b34801561031a57600080fd5b5061022d610329366004611e87565b61083b565b61021a61033c366004611e87565b6108ce565b34801561034d57600080fd5b506101e261035c366004611e87565b610b74565b34801561036d57600080fd5b5061022d61037c366004611f22565b610bd4565b34801561038d57600080fd5b5061021a610c5a565b3480156103a257600080fd5b50600b546001600160a01b03166101e2565b3480156103c057600080fd5b5061021a6103cf366004611f3d565b610c6e565b3480156103e057600080fd5b506101b5610dc0565b3480156103f557600080fd5b5061021a610404366004611f5f565b610dcf565b34801561041557600080fd5b5061021a610424366004612027565b610dde565b34801561043557600080fd5b5061022d6104443660046120a3565b610e16565b34801561045557600080fd5b506101b5610464366004611e87565b610f54565b34801561047557600080fd5b506104b2610484366004611e87565b600d602052600090815260409020805460018201546002909201546001600160a01b03909116919060ff1683565b604080516001600160a01b0390941684526020840192909252151590820152606001610197565b3480156104e557600080fd5b5061018b6104f4366004612137565b6001600160a01b03918216600090815260056020908152604080832093909416825291909152205460ff1690565b34801561052e57600080fd5b5061021a61053d366004611f22565b610f5f565b34801561054e57600080fd5b5061018b61055d366004611e87565b6000908152600d602052604090206002015460ff1690565b600061058082610fd8565b92915050565b6060600080546105959061216a565b80601f01602080910402602001604051908101604052809291908181526020018280546105c19061216a565b801561060e5780601f106105e35761010080835404028352916020019161060e565b820191906000526020600020905b8154815290600101906020018083116105f157829003601f168201915b5050505050905090565b600061062382610ffd565b506000908152600460205260409020546001600160a01b031690565b600061064a82610b74565b9050806001600160a01b0316836001600160a01b0316036106bc5760405162461bcd60e51b815260206004820152602160248201527f4552433732313a20617070726f76616c20746f2063757272656e74206f776e656044820152603960f91b60648201526084015b60405180910390fd5b336001600160a01b03821614806106d857506106d881336104f4565b61074a5760405162461bcd60e51b815260206004820152603d60248201527f4552433732313a20617070726f76652063616c6c6572206973206e6f7420746f60448201527f6b656e206f776e6572206f7220617070726f76656420666f7220616c6c00000060648201526084016106b3565b610754838361105c565b505050565b61076333826110ca565b61077f5760405162461bcd60e51b81526004016106b3906121a4565b610754838383611149565b600061079583610bd4565b82106107f75760405162461bcd60e51b815260206004820152602b60248201527f455243373231456e756d657261626c653a206f776e657220696e646578206f7560448201526a74206f6620626f756e647360a81b60648201526084016106b3565b506001600160a01b03919091166000908152600660209081526040808320938352929052205490565b61075483838360405180602001604052806000815250610dde565b600061084660085490565b82106108a95760405162461bcd60e51b815260206004820152602c60248201527f455243373231456e756d657261626c653a20676c6f62616c20696e646578206f60448201526b7574206f6620626f756e647360a01b60648201526084016106b3565b600882815481106108bc576108bc6121f1565b90600052602060002001549050919050565b6000818152600d6020908152604091829020825160608101845281546001600160a01b031681526001820154928101929092526002015460ff1615159181018290529061095d5760405162461bcd60e51b815260206004820152601a60248201527f4e4654206973206e6f74206c697374656420666f722073616c6500000000000060448201526064016106b3565b80602001513410156109a65760405162461bcd60e51b8152602060048201526012602482015271496e73756666696369656e742066756e647360701b60448201526064016106b3565b6000828152600e60209081526040808320815160608101835281546001600160a01b039081168252600183015481168286015260029092015490911691810191909152908301519091906064906109fe90600461221d565b610a089190612234565b9050600060648460200151605f610a1f919061221d565b610a299190612234565b90506000606485602001516001610a40919061221d565b610a4a9190612234565b84516040519192506001600160a01b03169084156108fc029085906000818181858888f19350505050158015610a84573d6000803e3d6000fd5b5083602001516001600160a01b03166108fc839081150290604051600060405180830381858888f19350505050158015610ac2573d6000803e3d6000fd5b5083604001516001600160a01b03166108fc829081150290604051600060405180830381858888f19350505050158015610b00573d6000803e3d6000fd5b508451610b0e903388611149565b6000868152600d6020908152604091829020600201805460ff1916905586810151825189815233928101929092528183015290517f6329e40c0365262ebbff5ca819385c2b9713dcaa050ed07866d72c441395699a9181900360600190a1505050505050565b6000818152600260205260408120546001600160a01b0316806105805760405162461bcd60e51b8152602060048201526018602482015277115490cdcc8c4e881a5b9d985b1a59081d1bdad95b88125160421b60448201526064016106b3565b60006001600160a01b038216610c3e5760405162461bcd60e51b815260206004820152602960248201527f4552433732313a2061646472657373207a65726f206973206e6f7420612076616044820152683634b21037bbb732b960b91b60648201526084016106b3565b506001600160a01b031660009081526003602052604090205490565b610c626112ba565b610c6c6000611314565b565b60008111610cbe5760405162461bcd60e51b815260206004820152601f60248201527f5072696365206d7573742062652067726561746572207468616e207a65726f0060448201526064016106b3565b33610cc883610b74565b6001600160a01b031614610d1e5760405162461bcd60e51b815260206004820152601760248201527f4f6e6c79206f776e65722063616e206c697374204e465400000000000000000060448201526064016106b3565b6040805160608082018352338083526020808401868152600185870181815260008a8152600d8552889020965187546001600160a01b0319166001600160a01b03909116178755915190860155516002909401805460ff1916941515949094179093558351868152928301529181018390527f5f9c03de076f5063cd3ebcfe8ef7aa8af378e4b35a83c77ba9777e97083879a291015b60405180910390a15050565b6060600180546105959061216a565b610dda338383611366565b5050565b610de833836110ca565b610e045760405162461bcd60e51b81526004016106b3906121a4565b610e1084848484611434565b50505050565b600080855111610e685760405162461bcd60e51b815260206004820152601960248201527f546f6b656e205552492063616e6e6f7420626520656d7074790000000000000060448201526064016106b3565b600c8054906000610e7883612256565b9091555050600c54610e8a8782611467565b610e948187611600565b604080516060810182526001600160a01b03808816825286811660208084019182528783168486019081526000878152600e90925290859020935184549084166001600160a01b03199182161785559151600185018054918516918416919091179055516002909301805493831693909116929092179091559051908816907fd35bb95e09c04b219e35047ce7b7b300e3384264ef84a40456943dbc0fc17c1490610f429084908a9061226f565b60405180910390a29695505050505050565b6060610580826116c4565b610f676112ba565b6001600160a01b038116610fcc5760405162461bcd60e51b815260206004820152602660248201527f4f776e61626c653a206e6577206f776e657220697320746865207a65726f206160448201526564647265737360d01b60648201526084016106b3565b610fd581611314565b50565b60006001600160e01b03198216632483248360e11b14806105805750610580826117cc565b6000818152600260205260409020546001600160a01b0316610fd55760405162461bcd60e51b8152602060048201526018602482015277115490cdcc8c4e881a5b9d985b1a59081d1bdad95b88125160421b60448201526064016106b3565b600081815260046020526040902080546001600160a01b0319166001600160a01b038416908117909155819061109182610b74565b6001600160a01b03167f8c5be1e5ebec7d5bd14f71427d1e84f3dd0314c0f7b2291e5b200ac8c7c3b92560405160405180910390a45050565b6000806110d683610b74565b9050806001600160a01b0316846001600160a01b0316148061111d57506001600160a01b0380821660009081526005602090815260408083209388168352929052205460ff165b806111415750836001600160a01b031661113684610618565b6001600160a01b0316145b949350505050565b826001600160a01b031661115c82610b74565b6001600160a01b0316146111825760405162461bcd60e51b81526004016106b390612288565b6001600160a01b0382166111e45760405162461bcd60e51b8152602060048201526024808201527f4552433732313a207472616e7366657220746f20746865207a65726f206164646044820152637265737360e01b60648201526084016106b3565b6111f183838360016117f1565b826001600160a01b031661120482610b74565b6001600160a01b03161461122a5760405162461bcd60e51b81526004016106b390612288565b600081815260046020908152604080832080546001600160a01b03199081169091556001600160a01b0387811680865260038552838620805460001901905590871680865283862080546001019055868652600290945282852080549092168417909155905184937fddf252ad1be2c89b69c2b068fc378daa952ba7f163c4a11628f55a4df523b3ef91a4505050565b600b546001600160a01b03163314610c6c5760405162461bcd60e51b815260206004820181905260248201527f4f776e61626c653a2063616c6c6572206973206e6f7420746865206f776e657260448201526064016106b3565b600b80546001600160a01b038381166001600160a01b0319831681179093556040519116919082907f8be0079c531659141344cd1fd0a4f28419497f9722a3daafe3b4186f6b6457e090600090a35050565b816001600160a01b0316836001600160a01b0316036113c75760405162461bcd60e51b815260206004820152601960248201527f4552433732313a20617070726f766520746f2063616c6c65720000000000000060448201526064016106b3565b6001600160a01b03838116600081815260056020908152604080832094871680845294825291829020805460ff191686151590811790915591519182527f17307eab39ab6107e8899845ad3d59bd9653f200f220920489ca2b5937696c31910160405180910390a3505050565b61143f848484611149565b61144b848484846117fd565b610e105760405162461bcd60e51b81526004016106b3906122cd565b6001600160a01b0382166114bd5760405162461bcd60e51b815260206004820181905260248201527f4552433732313a206d696e7420746f20746865207a65726f206164647265737360448201526064016106b3565b6000818152600260205260409020546001600160a01b0316156115225760405162461bcd60e51b815260206004820152601c60248201527f4552433732313a20746f6b656e20616c7265616479206d696e7465640000000060448201526064016106b3565b6115306000838360016117f1565b6000818152600260205260409020546001600160a01b0316156115955760405162461bcd60e51b815260206004820152601c60248201527f4552433732313a20746f6b656e20616c7265616479206d696e7465640000000060448201526064016106b3565b6001600160a01b038216600081815260036020908152604080832080546001019055848352600290915280822080546001600160a01b0319168417905551839291907fddf252ad1be2c89b69c2b068fc378daa952ba7f163c4a11628f55a4df523b3ef908290a45050565b6000828152600260205260409020546001600160a01b031661167b5760405162461bcd60e51b815260206004820152602e60248201527f45524337323155524953746f726167653a2055524920736574206f66206e6f6e60448201526d32bc34b9ba32b73a103a37b5b2b760911b60648201526084016106b3565b6000828152600a60205260409020611693828261236d565b506040518281527ff8e1a15aba9398e019f0b49df1a4fde98ee17ae345cb5f6b5e2c27f5033e8ce790602001610db4565b60606116cf82610ffd565b6000828152600a6020526040812080546116e89061216a565b80601f01602080910402602001604051908101604052809291908181526020018280546117149061216a565b80156117615780601f1061173657610100808354040283529160200191611761565b820191906000526020600020905b81548152906001019060200180831161174457829003601f168201915b50505050509050600061177f60408051602081019091526000815290565b90508051600003611791575092915050565b8151156117c35780826040516020016117ab92919061242d565b60405160208183030381529060405292505050919050565b611141846118fe565b60006001600160e01b0319821663780e9d6360e01b1480610580575061058082611972565b610e10848484846119c2565b60006001600160a01b0384163b156118f357604051630a85bd0160e11b81526001600160a01b0385169063150b7a029061184190339089908890889060040161245c565b6020604051808303816000875af192505050801561187c575060408051601f3d908101601f1916820190925261187991810190612499565b60015b6118d9573d8080156118aa576040519150601f19603f3d011682016040523d82523d6000602084013e6118af565b606091505b5080516000036118d15760405162461bcd60e51b81526004016106b3906122cd565b805181602001fd5b6001600160e01b031916630a85bd0160e11b149050611141565b506001949350505050565b606061190982610ffd565b600061192060408051602081019091526000815290565b90506000815111611940576040518060200160405280600081525061196b565b8061194a84611af6565b60405160200161195b92919061242d565b6040516020818303038152906040525b9392505050565b60006001600160e01b031982166380ac58cd60e01b14806119a357506001600160e01b03198216635b5e139f60e01b145b8061058057506301ffc9a760e01b6001600160e01b0319831614610580565b6001811115611a315760405162461bcd60e51b815260206004820152603560248201527f455243373231456e756d657261626c653a20636f6e7365637574697665207472604482015274185b9cd9995c9cc81b9bdd081cdd5c1c1bdc9d1959605a1b60648201526084016106b3565b816001600160a01b038516611a8d57611a8881600880546000838152600960205260408120829055600182018355919091527ff3f7a9fe364faab93b216da50a3214154f22a0a2b415b23a84c8169e8b636ee30155565b611ab0565b836001600160a01b0316856001600160a01b031614611ab057611ab08582611b89565b6001600160a01b038416611acc57611ac781611c26565b611aef565b846001600160a01b0316846001600160a01b031614611aef57611aef8482611cd5565b5050505050565b60606000611b0383611d19565b600101905060008167ffffffffffffffff811115611b2357611b23611f9b565b6040519080825280601f01601f191660200182016040528015611b4d576020820181803683370190505b5090508181016020015b600019016f181899199a1a9b1b9c1cb0b131b232b360811b600a86061a8153600a8504945084611b5757509392505050565b60006001611b9684610bd4565b611ba091906124b6565b600083815260076020526040902054909150808214611bf3576001600160a01b03841660009081526006602090815260408083208584528252808320548484528184208190558352600790915290208190555b5060009182526007602090815260408084208490556001600160a01b039094168352600681528383209183525290812055565b600854600090611c38906001906124b6565b60008381526009602052604081205460088054939450909284908110611c6057611c606121f1565b906000526020600020015490508060088381548110611c8157611c816121f1565b6000918252602080832090910192909255828152600990915260408082208490558582528120556008805480611cb957611cb96124c9565b6001900381819060005260206000200160009055905550505050565b6000611ce083610bd4565b6001600160a01b039093166000908152600660209081526040808320868452825280832085905593825260079052919091209190915550565b60008072184f03e93ff9f4daa797ed6e38ed64bf6a1f0160401b8310611d585772184f03e93ff9f4daa797ed6e38ed64bf6a1f0160401b830492506040015b6d04ee2d6d415b85acef81000000008310611d84576d04ee2d6d415b85acef8100000000830492506020015b662386f26fc100008310611da257662386f26fc10000830492506010015b6305f5e1008310611dba576305f5e100830492506008015b6127108310611dce57612710830492506004015b60648310611de0576064830492506002015b600a83106105805760010192915050565b6001600160e01b031981168114610fd557600080fd5b600060208284031215611e1957600080fd5b813561196b81611df1565b60005b83811015611e3f578181015183820152602001611e27565b50506000910152565b60008151808452611e60816020860160208601611e24565b601f01601f19169290920160200192915050565b60208152600061196b6020830184611e48565b600060208284031215611e9957600080fd5b5035919050565b80356001600160a01b0381168114611eb757600080fd5b919050565b60008060408385031215611ecf57600080fd5b611ed883611ea0565b946020939093013593505050565b600080600060608486031215611efb57600080fd5b611f0484611ea0565b9250611f1260208501611ea0565b9150604084013590509250925092565b600060208284031215611f3457600080fd5b61196b82611ea0565b60008060408385031215611f5057600080fd5b50508035926020909101359150565b60008060408385031215611f7257600080fd5b611f7b83611ea0565b915060208301358015158114611f9057600080fd5b809150509250929050565b634e487b7160e01b600052604160045260246000fd5b600067ffffffffffffffff80841115611fcc57611fcc611f9b565b604051601f8501601f19908116603f01168101908282118183101715611ff457611ff4611f9b565b8160405280935085815286868601111561200d57600080fd5b858560208301376000602087830101525050509392505050565b6000806000806080858703121561203d57600080fd5b61204685611ea0565b935061205460208601611ea0565b925060408501359150606085013567ffffffffffffffff81111561207757600080fd5b8501601f8101871361208857600080fd5b61209787823560208401611fb1565b91505092959194509250565b600080600080600060a086880312156120bb57600080fd5b6120c486611ea0565b9450602086013567ffffffffffffffff8111156120e057600080fd5b8601601f810188136120f157600080fd5b61210088823560208401611fb1565b94505061210f60408701611ea0565b925061211d60608701611ea0565b915061212b60808701611ea0565b90509295509295909350565b6000806040838503121561214a57600080fd5b61215383611ea0565b915061216160208401611ea0565b90509250929050565b600181811c9082168061217e57607f821691505b60208210810361219e57634e487b7160e01b600052602260045260246000fd5b50919050565b6020808252602d908201527f4552433732313a2063616c6c6572206973206e6f7420746f6b656e206f776e6560408201526c1c881bdc88185c1c1c9bdd9959609a1b606082015260800190565b634e487b7160e01b600052603260045260246000fd5b634e487b7160e01b600052601160045260246000fd5b808202811582820484141761058057610580612207565b60008261225157634e487b7160e01b600052601260045260246000fd5b500490565b60006001820161226857612268612207565b5060010190565b8281526040602082015260006111416040830184611e48565b60208082526025908201527f4552433732313a207472616e736665722066726f6d20696e636f72726563742060408201526437bbb732b960d91b606082015260800190565b60208082526032908201527f4552433732313a207472616e7366657220746f206e6f6e20455243373231526560408201527131b2b4bb32b91034b6b83632b6b2b73a32b960711b606082015260800190565b601f82111561075457600081815260208120601f850160051c810160208610156123465750805b601f850160051c820191505b8181101561236557828155600101612352565b505050505050565b815167ffffffffffffffff81111561238757612387611f9b565b61239b81612395845461216a565b8461231f565b602080601f8311600181146123d057600084156123b85750858301515b600019600386901b1c1916600185901b178555612365565b600085815260208120601f198616915b828110156123ff578886015182559484019460019091019084016123e0565b508582101561241d5787850151600019600388901b60f8161c191681555b5050505050600190811b01905550565b6000835161243f818460208801611e24565b835190830190612453818360208801611e24565b01949350505050565b6001600160a01b038581168252841660208201526040810183905260806060820181905260009061248f90830184611e48565b9695505050505050565b6000602082840312156124ab57600080fd5b815161196b81611df1565b8181038181111561058057610580612207565b634e487b7160e01b600052603160045260246000fdfea2646970667358221220e70d5f8e1490329d66b3ac0c235e96420e12ec465d3dfbc717dbd6a3d47ae54364736f6c63430008110033",
  "immutableReferences": {},
  "source": "// SPDX-License-Identifier: MIT\r\npragma solidity ^0.8.17;\r\n\r\nimport \"@openzeppelin/contracts/token/ERC721/extensions/ERC721Enumerable.sol\";\r\nimport \"@openzeppelin/contracts/token/ERC721/extensions/ERC721URIStorage.sol\";\r\nimport \"@openzeppelin/contracts/access/Ownable.sol\";\r\n\r\ncontract NFTMarketplace is ERC721, ERC721Enumerable, ERC721URIStorage, Ownable {\r\n    // NFT   \r\n    uint256 private _tokenIds;\r\n\r\n    //    \r\n    struct Listing {\r\n        address seller;\r\n        uint256 price;\r\n        bool isListed;\r\n    }\r\n    //  ID -> Listing ( )\r\n    mapping(uint256 => Listing) public listings;\r\n\r\n    //     (, ,  )\r\n    struct RoyaltyInfo {\r\n        address originalCreator;\r\n        address registrant;\r\n        address adminWallet;\r\n    }\r\n    //  ID -> RoyaltyInfo (  )\r\n    mapping(uint256 => RoyaltyInfo) public royaltyInfoByToken;\r\n\r\n    //  \r\n    event NFTMinted(address indexed to, uint256 tokenId, string tokenURI);\r\n    event NFTListed(uint256 tokenId, address seller, uint256 price);\r\n    event NFTSold(uint256 tokenId, address buyer, uint256 price);\r\n\r\n    constructor() ERC721(\"Chaintoon\", \"Chaintoon\") {}\r\n\r\n    /**\r\n     * @dev NFT   (  ).\r\n     * @param to  NFT  \r\n     * @param _tokenURI NFT  URI\r\n     * @param originalCreator   \r\n     * @param registrant   \r\n     * @param adminWallet   \r\n     * @return newTokenId  NFT tokenId\r\n     */\r\n    function mint(\r\n        address to,\r\n        string memory _tokenURI,\r\n        address originalCreator,\r\n        address registrant,\r\n        address adminWallet\r\n    ) public returns (uint256) {\r\n        require(bytes(_tokenURI).length > 0, \"Token URI cannot be empty\");\r\n\r\n        _tokenIds++;\r\n        uint256 newTokenId = _tokenIds;\r\n\r\n        //  NFT \r\n        _mint(to, newTokenId);\r\n        _setTokenURI(newTokenId, _tokenURI);\r\n\r\n        //   \r\n        royaltyInfoByToken[newTokenId] = RoyaltyInfo({\r\n            originalCreator: originalCreator,\r\n            registrant: registrant,\r\n            adminWallet: adminWallet\r\n        });\r\n\r\n        emit NFTMinted(to, newTokenId, _tokenURI);\r\n        return newTokenId;\r\n    }\r\n    /**\r\n     * @dev NFT    .\r\n     * @param tokenId   ID\r\n     * @param price   (Wei )\r\n     */\r\n    function listNFT(uint256 tokenId, uint256 price) public {\r\n        require(price > 0, \"Price must be greater than zero\");\r\n        // NFT     \r\n        require(ownerOf(tokenId) == msg.sender, \"Only owner can list NFT\");\r\n\r\n        listings[tokenId] = Listing(msg.sender, price, true);\r\n\r\n        emit NFTListed(tokenId, msg.sender, price);\r\n    }\r\n\r\n    /**\r\n     * @dev      .\r\n     * @param tokenId   ID\r\n     * @return bool  \r\n     */\r\n    function isListed(uint256 tokenId) public view returns (bool) {\r\n        return listings[tokenId].isListed;\r\n    }\r\n\r\n    /**\r\n     * @dev NFT   (   ).\r\n     * @param tokenId   ID\r\n     */\r\n    function buyNFT(uint256 tokenId) public payable {\r\n        Listing memory listing = listings[tokenId];\r\n        require(listing.isListed, \"NFT is not listed for sale\");\r\n        require(msg.value >= listing.price, \"Insufficient funds\");\r\n\r\n        // (1)  NFT   \r\n        RoyaltyInfo memory info = royaltyInfoByToken[tokenId];\r\n\r\n        // (2) : 4% / 95% / 1%  \r\n        uint256 originalCreatorShare = (listing.price * 4) / 100;\r\n        uint256 registrantShare = (listing.price * 95) / 100;\r\n        uint256 adminShare = (listing.price * 1) / 100;\r\n\r\n        // (3)  \r\n        payable(info.originalCreator).transfer(originalCreatorShare);\r\n        payable(info.registrant).transfer(registrantShare);\r\n        payable(info.adminWallet).transfer(adminShare);\r\n\r\n        // (4) NFT  \r\n        _transfer(listing.seller, msg.sender, tokenId);\r\n        listings[tokenId].isListed = false;\r\n\r\n        // (5)  \r\n        emit NFTSold(tokenId, msg.sender, listing.price);\r\n    }\r\n\r\n    //  ERC721Enumerable  ERC721URIStorage       .\r\n\r\n    function _beforeTokenTransfer(\r\n        address from,\r\n        address to,\r\n        uint256 tokenId,\r\n        uint256 batchSize\r\n    ) internal virtual override(ERC721, ERC721Enumerable) {\r\n        super._beforeTokenTransfer(from, to, tokenId, batchSize);\r\n    }\r\n\r\n    function supportsInterface(\r\n        bytes4 interfaceId\r\n    )\r\n        public\r\n        view\r\n        virtual\r\n        override(ERC721, ERC721Enumerable, ERC721URIStorage)\r\n        returns (bool)\r\n    {\r\n        return super.supportsInterface(interfaceId);\r\n    }\r\n\r\n    function _burn(\r\n        uint256 tokenId\r\n    ) internal virtual override(ERC721, ERC721URIStorage) {\r\n        super._burn(tokenId);\r\n    }\r\n\r\n    function tokenURI(\r\n        uint256 tokenId\r\n    )\r\n        public\r\n        view\r\n        virtual\r\n        override(ERC721, ERC721URIStorage)\r\n        returns (string memory)\r\n    {\r\n        return super.tokenURI(tokenId);\r\n    }\r\n}\r\n",
  "sourcePath": "C:\\ssafy\\S12P21C109\\contracts\\contracts\\NFTMarketplace.sol",
  "compiler": {
    "name": "solc",
    "version": "0.8.17+commit.8df45f5f.Emscripten.clang"
  },
  "schemaVersion": "3.4.16",
  "updatedAt": "2025-04-01T01:50:12.536Z",
  "devdoc": {
    "kind": "dev",
    "methods": {
      "approve(address,uint256)": {
        "details": "See {IERC721-approve}."
      },
      "balanceOf(address)": {
        "details": "See {IERC721-balanceOf}."
      },
      "buyNFT(uint256)": {
        "details": "NFT   (   ).",
        "params": {
          "tokenId": "  ID"
        }
      },
      "getApproved(uint256)": {
        "details": "See {IERC721-getApproved}."
      },
      "isApprovedForAll(address,address)": {
        "details": "See {IERC721-isApprovedForAll}."
      },
      "isListed(uint256)": {
        "details": "     .",
        "params": {
          "tokenId": "  ID"
        },
        "returns": {
          "_0": "bool  "
        }
      },
      "listNFT(uint256,uint256)": {
        "details": "NFT    .",
        "params": {
          "price": "  (Wei )",
          "tokenId": "  ID"
        }
      },
      "mint(address,string,address,address,address)": {
        "details": "NFT   (  ).",
        "params": {
          "_tokenURI": "NFT  URI",
          "adminWallet": "  ",
          "originalCreator": "  ",
          "registrant": "  ",
          "to": " NFT  "
        },
        "returns": {
          "_0": "newTokenId  NFT tokenId"
        }
      },
      "name()": {
        "details": "See {IERC721Metadata-name}."
      },
      "owner()": {
        "details": "Returns the address of the current owner."
      },
      "ownerOf(uint256)": {
        "details": "See {IERC721-ownerOf}."
      },
      "renounceOwnership()": {
        "details": "Leaves the contract without owner. It will not be possible to call `onlyOwner` functions. Can only be called by the current owner. NOTE: Renouncing ownership will leave the contract without an owner, thereby disabling any functionality that is only available to the owner."
      },
      "safeTransferFrom(address,address,uint256)": {
        "details": "See {IERC721-safeTransferFrom}."
      },
      "safeTransferFrom(address,address,uint256,bytes)": {
        "details": "See {IERC721-safeTransferFrom}."
      },
      "setApprovalForAll(address,bool)": {
        "details": "See {IERC721-setApprovalForAll}."
      },
      "symbol()": {
        "details": "See {IERC721Metadata-symbol}."
      },
      "tokenByIndex(uint256)": {
        "details": "See {IERC721Enumerable-tokenByIndex}."
      },
      "tokenOfOwnerByIndex(address,uint256)": {
        "details": "See {IERC721Enumerable-tokenOfOwnerByIndex}."
      },
      "totalSupply()": {
        "details": "See {IERC721Enumerable-totalSupply}."
      },
      "transferFrom(address,address,uint256)": {
        "details": "See {IERC721-transferFrom}."
      },
      "transferOwnership(address)": {
        "details": "Transfers ownership of the contract to a new account (`newOwner`). Can only be called by the current owner."
      }
    },
    "version": 1
  },
  "userdoc": {
    "kind": "user",
    "methods": {},
    "version": 1
  }
}