{
  "contractName": "NFTMarketplace",
  "abi": [
    {
      "inputs": [],
      "stateMutability": "nonpayable",
      "type": "constructor"
    },
    {
      "anonymous": false,
      "inputs": [
        {
          "indexed": true,
          "internalType": "address",
          "name": "owner",
          "type": "address"
        },
        {
          "indexed": true,
          "internalType": "address",
          "name": "approved",
          "type": "address"
        },
        {
          "indexed": true,
          "internalType": "uint256",
          "name": "tokenId",
          "type": "uint256"
        }
      ],
      "name": "Approval",
      "type": "event"
    },
    {
      "anonymous": false,
      "inputs": [
        {
          "indexed": true,
          "internalType": "address",
          "name": "owner",
          "type": "address"
        },
        {
          "indexed": true,
          "internalType": "address",
          "name": "operator",
          "type": "address"
        },
        {
          "indexed": false,
          "internalType": "bool",
          "name": "approved",
          "type": "bool"
        }
      ],
      "name": "ApprovalForAll",
      "type": "event"
    },
    {
      "anonymous": false,
      "inputs": [
        {
          "indexed": false,
          "internalType": "uint256",
          "name": "_fromTokenId",
          "type": "uint256"
        },
        {
          "indexed": false,
          "internalType": "uint256",
          "name": "_toTokenId",
          "type": "uint256"
        }
      ],
      "name": "BatchMetadataUpdate",
      "type": "event"
    },
    {
      "anonymous": false,
      "inputs": [
        {
          "indexed": false,
          "internalType": "uint256",
          "name": "_tokenId",
          "type": "uint256"
        }
      ],
      "name": "MetadataUpdate",
      "type": "event"
    },
    {
      "anonymous": false,
      "inputs": [
        {
          "indexed": true,
          "internalType": "address",
          "name": "to",
          "type": "address"
        },
        {
          "indexed": false,
          "internalType": "uint256",
          "name": "tokenId",
          "type": "uint256"
        },
        {
          "indexed": false,
          "internalType": "string",
          "name": "tokenURI",
          "type": "string"
        }
      ],
      "name": "Minted",
      "type": "event"
    },
    {
      "anonymous": false,
      "inputs": [
        {
          "indexed": false,
          "internalType": "uint256",
          "name": "tokenId",
          "type": "uint256"
        },
        {
          "indexed": false,
          "internalType": "address",
          "name": "seller",
          "type": "address"
        },
        {
          "indexed": false,
          "internalType": "uint256",
          "name": "price",
          "type": "uint256"
        }
      ],
      "name": "NFTListed",
      "type": "event"
    },
    {
      "anonymous": false,
      "inputs": [
        {
          "indexed": false,
          "internalType": "uint256",
          "name": "tokenId",
          "type": "uint256"
        },
        {
          "indexed": false,
          "internalType": "address",
          "name": "buyer",
          "type": "address"
        },
        {
          "indexed": false,
          "internalType": "address",
          "name": "seller",
          "type": "address"
        },
        {
          "indexed": false,
          "internalType": "uint256",
          "name": "price",
          "type": "uint256"
        }
      ],
      "name": "NFTSold",
      "type": "event"
    },
    {
      "anonymous": false,
      "inputs": [
        {
          "indexed": true,
          "internalType": "address",
          "name": "previousOwner",
          "type": "address"
        },
        {
          "indexed": true,
          "internalType": "address",
          "name": "newOwner",
          "type": "address"
        }
      ],
      "name": "OwnershipTransferred",
      "type": "event"
    },
    {
      "anonymous": false,
      "inputs": [
        {
          "indexed": true,
          "internalType": "address",
          "name": "from",
          "type": "address"
        },
        {
          "indexed": true,
          "internalType": "address",
          "name": "to",
          "type": "address"
        },
        {
          "indexed": true,
          "internalType": "uint256",
          "name": "tokenId",
          "type": "uint256"
        }
      ],
      "name": "Transfer",
      "type": "event"
    },
    {
      "inputs": [
        {
          "internalType": "address",
          "name": "to",
          "type": "address"
        },
        {
          "internalType": "uint256",
          "name": "tokenId",
          "type": "uint256"
        }
      ],
      "name": "approve",
      "outputs": [],
      "stateMutability": "nonpayable",
      "type": "function"
    },
    {
      "inputs": [
        {
          "internalType": "address",
          "name": "owner",
          "type": "address"
        }
      ],
      "name": "balanceOf",
      "outputs": [
        {
          "internalType": "uint256",
          "name": "",
          "type": "uint256"
        }
      ],
      "stateMutability": "view",
      "type": "function",
      "constant": true
    },
    {
      "inputs": [
        {
          "internalType": "uint256",
          "name": "tokenId",
          "type": "uint256"
        }
      ],
      "name": "getApproved",
      "outputs": [
        {
          "internalType": "address",
          "name": "",
          "type": "address"
        }
      ],
      "stateMutability": "view",
      "type": "function",
      "constant": true
    },
    {
      "inputs": [
        {
          "internalType": "address",
          "name": "owner",
          "type": "address"
        },
        {
          "internalType": "address",
          "name": "operator",
          "type": "address"
        }
      ],
      "name": "isApprovedForAll",
      "outputs": [
        {
          "internalType": "bool",
          "name": "",
          "type": "bool"
        }
      ],
      "stateMutability": "view",
      "type": "function",
      "constant": true
    },
    {
      "inputs": [
        {
          "internalType": "uint256",
          "name": "",
          "type": "uint256"
        }
      ],
      "name": "listings",
      "outputs": [
        {
          "internalType": "address",
          "name": "seller",
          "type": "address"
        },
        {
          "internalType": "uint256",
          "name": "price",
          "type": "uint256"
        },
        {
          "internalType": "uint256",
          "name": "amount",
          "type": "uint256"
        },
        {
          "internalType": "bool",
          "name": "isListed",
          "type": "bool"
        }
      ],
      "stateMutability": "view",
      "type": "function",
      "constant": true
    },
    {
      "inputs": [],
      "name": "name",
      "outputs": [
        {
          "internalType": "string",
          "name": "",
          "type": "string"
        }
      ],
      "stateMutability": "view",
      "type": "function",
      "constant": true
    },
    {
      "inputs": [],
      "name": "owner",
      "outputs": [
        {
          "internalType": "address",
          "name": "",
          "type": "address"
        }
      ],
      "stateMutability": "view",
      "type": "function",
      "constant": true
    },
    {
      "inputs": [
        {
          "internalType": "uint256",
          "name": "tokenId",
          "type": "uint256"
        }
      ],
      "name": "ownerOf",
      "outputs": [
        {
          "internalType": "address",
          "name": "",
          "type": "address"
        }
      ],
      "stateMutability": "view",
      "type": "function",
      "constant": true
    },
    {
      "inputs": [
        {
          "internalType": "uint256",
          "name": "",
          "type": "uint256"
        }
      ],
      "name": "purchaseRecords",
      "outputs": [
        {
          "internalType": "address",
          "name": "buyer",
          "type": "address"
        },
        {
          "internalType": "uint256",
          "name": "price",
          "type": "uint256"
        },
        {
          "internalType": "uint256",
          "name": "purchaseTime",
          "type": "uint256"
        }
      ],
      "stateMutability": "view",
      "type": "function",
      "constant": true
    },
    {
      "inputs": [],
      "name": "renounceOwnership",
      "outputs": [],
      "stateMutability": "nonpayable",
      "type": "function"
    },
    {
      "inputs": [
        {
          "internalType": "uint256",
          "name": "",
          "type": "uint256"
        }
      ],
      "name": "royaltyInfoByToken",
      "outputs": [
        {
          "internalType": "address",
          "name": "originalCreator",
          "type": "address"
        },
        {
          "internalType": "address",
          "name": "ownerShare",
          "type": "address"
        },
        {
          "internalType": "address",
          "name": "adminWallet",
          "type": "address"
        }
      ],
      "stateMutability": "view",
      "type": "function",
      "constant": true
    },
    {
      "inputs": [
        {
          "internalType": "address",
          "name": "from",
          "type": "address"
        },
        {
          "internalType": "address",
          "name": "to",
          "type": "address"
        },
        {
          "internalType": "uint256",
          "name": "tokenId",
          "type": "uint256"
        }
      ],
      "name": "safeTransferFrom",
      "outputs": [],
      "stateMutability": "nonpayable",
      "type": "function"
    },
    {
      "inputs": [
        {
          "internalType": "address",
          "name": "from",
          "type": "address"
        },
        {
          "internalType": "address",
          "name": "to",
          "type": "address"
        },
        {
          "internalType": "uint256",
          "name": "tokenId",
          "type": "uint256"
        },
        {
          "internalType": "bytes",
          "name": "data",
          "type": "bytes"
        }
      ],
      "name": "safeTransferFrom",
      "outputs": [],
      "stateMutability": "nonpayable",
      "type": "function"
    },
    {
      "inputs": [
        {
          "internalType": "address",
          "name": "operator",
          "type": "address"
        },
        {
          "internalType": "bool",
          "name": "approved",
          "type": "bool"
        }
      ],
      "name": "setApprovalForAll",
      "outputs": [],
      "stateMutability": "nonpayable",
      "type": "function"
    },
    {
      "inputs": [],
      "name": "symbol",
      "outputs": [
        {
          "internalType": "string",
          "name": "",
          "type": "string"
        }
      ],
      "stateMutability": "view",
      "type": "function",
      "constant": true
    },
    {
      "inputs": [
        {
          "internalType": "uint256",
          "name": "index",
          "type": "uint256"
        }
      ],
      "name": "tokenByIndex",
      "outputs": [
        {
          "internalType": "uint256",
          "name": "",
          "type": "uint256"
        }
      ],
      "stateMutability": "view",
      "type": "function",
      "constant": true
    },
    {
      "inputs": [
        {
          "internalType": "address",
          "name": "owner",
          "type": "address"
        },
        {
          "internalType": "uint256",
          "name": "index",
          "type": "uint256"
        }
      ],
      "name": "tokenOfOwnerByIndex",
      "outputs": [
        {
          "internalType": "uint256",
          "name": "",
          "type": "uint256"
        }
      ],
      "stateMutability": "view",
      "type": "function",
      "constant": true
    },
    {
      "inputs": [],
      "name": "totalSupply",
      "outputs": [
        {
          "internalType": "uint256",
          "name": "",
          "type": "uint256"
        }
      ],
      "stateMutability": "view",
      "type": "function",
      "constant": true
    },
    {
      "inputs": [
        {
          "internalType": "address",
          "name": "from",
          "type": "address"
        },
        {
          "internalType": "address",
          "name": "to",
          "type": "address"
        },
        {
          "internalType": "uint256",
          "name": "tokenId",
          "type": "uint256"
        }
      ],
      "name": "transferFrom",
      "outputs": [],
      "stateMutability": "nonpayable",
      "type": "function"
    },
    {
      "inputs": [
        {
          "internalType": "address",
          "name": "newOwner",
          "type": "address"
        }
      ],
      "name": "transferOwnership",
      "outputs": [],
      "stateMutability": "nonpayable",
      "type": "function"
    },
    {
      "inputs": [
        {
          "internalType": "address",
          "name": "to",
          "type": "address"
        },
        {
          "internalType": "string",
          "name": "_tokenURI",
          "type": "string"
        },
        {
          "internalType": "address",
          "name": "originalCreator",
          "type": "address"
        },
        {
          "internalType": "address",
          "name": "adminWallet",
          "type": "address"
        }
      ],
      "name": "mint",
      "outputs": [
        {
          "internalType": "uint256",
          "name": "",
          "type": "uint256"
        }
      ],
      "stateMutability": "nonpayable",
      "type": "function"
    },
    {
      "inputs": [
        {
          "internalType": "uint256",
          "name": "tokenId",
          "type": "uint256"
        },
        {
          "internalType": "uint256",
          "name": "price",
          "type": "uint256"
        }
      ],
      "name": "listNFT",
      "outputs": [],
      "stateMutability": "nonpayable",
      "type": "function"
    },
    {
      "inputs": [
        {
          "internalType": "uint256",
          "name": "tokenId",
          "type": "uint256"
        }
      ],
      "name": "isListed",
      "outputs": [
        {
          "internalType": "bool",
          "name": "",
          "type": "bool"
        }
      ],
      "stateMutability": "view",
      "type": "function",
      "constant": true
    },
    {
      "inputs": [
        {
          "internalType": "uint256",
          "name": "tokenId",
          "type": "uint256"
        }
      ],
      "name": "buyNFT",
      "outputs": [],
      "stateMutability": "payable",
      "type": "function",
      "payable": true
    },
    {
      "inputs": [
        {
          "internalType": "bytes4",
          "name": "interfaceId",
          "type": "bytes4"
        }
      ],
      "name": "supportsInterface",
      "outputs": [
        {
          "internalType": "bool",
          "name": "",
          "type": "bool"
        }
      ],
      "stateMutability": "view",
      "type": "function",
      "constant": true
    },
    {
      "inputs": [
        {
          "internalType": "uint256",
          "name": "tokenId",
          "type": "uint256"
        }
      ],
      "name": "tokenURI",
      "outputs": [
        {
          "internalType": "string",
          "name": "",
          "type": "string"
        }
      ],
      "stateMutability": "view",
      "type": "function",
      "constant": true
    }
  ],
  "bytecode": "0x60806040523480156200001157600080fd5b5060408051808201825260098082526821b430b4b73a37b7b760b91b602080840182905284518086019095529184529083015290600062000053838262000180565b50600162000062828262000180565b5050506200007f620000796200008560201b60201c565b62000089565b6200024c565b3390565b600b80546001600160a01b038381166001600160a01b0319831681179093556040519116919082907f8be0079c531659141344cd1fd0a4f28419497f9722a3daafe3b4186f6b6457e090600090a35050565b634e487b7160e01b600052604160045260246000fd5b600181811c908216806200010657607f821691505b6020821081036200012757634e487b7160e01b600052602260045260246000fd5b50919050565b601f8211156200017b57600081815260208120601f850160051c81016020861015620001565750805b601f850160051c820191505b81811015620001775782815560010162000162565b5050505b505050565b81516001600160401b038111156200019c576200019c620000db565b620001b481620001ad8454620000f1565b846200012d565b602080601f831160018114620001ec5760008415620001d35750858301515b600019600386901b1c1916600185901b17855562000177565b600085815260208120601f198616915b828110156200021d57888601518255948401946001909101908401620001fc565b50858210156200023c5787850151600019600388901b60f8161c191681555b5050505050600190811b01905550565b6126cf806200025c6000396000f3fe6080604052600436106101815760003560e01c8063715018a6116100d1578063b88d4fde1161008a578063de74e57b11610064578063de74e57b146104ef578063e985e9c51461056a578063f2fde38b146105b3578063fcce4883146105d357600080fd5b8063b88d4fde1461048f578063c03d7637146104af578063c87b56dd146104cf57600080fd5b8063715018a61461039c57806376b01941146103b15780638da5cb5b1461041c57806394383f141461043a57806395d89b411461045a578063a22cb4651461046f57600080fd5b80632e39c5541161013e5780634f6ccce7116101185780634f6ccce71461032957806351ed8288146103495780636352211e1461035c57806370a082311461037c57600080fd5b80632e39c554146102765780632f745c59146102e957806342842e0e1461030957600080fd5b806301ffc9a71461018657806306fdde03146101bb578063081812fc146101dd578063095ea7b31461021557806318160ddd1461023757806323b872dd14610256575b600080fd5b34801561019257600080fd5b506101a66101a1366004611fbf565b610606565b60405190151581526020015b60405180910390f35b3480156101c757600080fd5b506101d0610617565b6040516101b2919061202c565b3480156101e957600080fd5b506101fd6101f836600461203f565b6106a9565b6040516001600160a01b0390911681526020016101b2565b34801561022157600080fd5b50610235610230366004612074565b6106d0565b005b34801561024357600080fd5b506008545b6040519081526020016101b2565b34801561026257600080fd5b5061023561027136600461209e565b6107ea565b34801561028257600080fd5b506102bf61029136600461203f565b600e602052600090815260409020805460018201546002909201546001600160a01b03918216928216911683565b604080516001600160a01b03948516815292841660208401529216918101919091526060016101b2565b3480156102f557600080fd5b50610248610304366004612074565b61081b565b34801561031557600080fd5b5061023561032436600461209e565b6108b1565b34801561033557600080fd5b5061024861034436600461203f565b6108cc565b61023561035736600461203f565b61095f565b34801561036857600080fd5b506101fd61037736600461203f565b610d1c565b34801561038857600080fd5b506102486103973660046120da565b610d7c565b3480156103a857600080fd5b50610235610e02565b3480156103bd57600080fd5b506103f76103cc36600461203f565b600f602052600090815260409020805460018201546002909201546001600160a01b03909116919083565b604080516001600160a01b0390941684526020840192909252908201526060016101b2565b34801561042857600080fd5b50600b546001600160a01b03166101fd565b34801561044657600080fd5b506102356104553660046120f5565b610e16565b34801561046657600080fd5b506101d0610f7d565b34801561047b57600080fd5b5061023561048a366004612117565b610f8c565b34801561049b57600080fd5b506102356104aa3660046121df565b610f9b565b3480156104bb57600080fd5b506102486104ca36600461225b565b610fd3565b3480156104db57600080fd5b506101d06104ea36600461203f565b611110565b3480156104fb57600080fd5b5061053e61050a36600461203f565b600d6020526000908152604090208054600182015460028301546003909301546001600160a01b0390921692909160ff1684565b604080516001600160a01b039095168552602085019390935291830152151560608201526080016101b2565b34801561057657600080fd5b506101a66105853660046122de565b6001600160a01b03918216600090815260056020908152604080832093909416825291909152205460ff1690565b3480156105bf57600080fd5b506102356105ce3660046120da565b61111b565b3480156105df57600080fd5b506101a66105ee36600461203f565b6000908152600d602052604090206003015460ff1690565b600061061182611194565b92915050565b60606000805461062690612311565b80601f016020809104026020016040519081016040528092919081815260200182805461065290612311565b801561069f5780601f106106745761010080835404028352916020019161069f565b820191906000526020600020905b81548152906001019060200180831161068257829003601f168201915b5050505050905090565b60006106b4826111b9565b506000908152600460205260409020546001600160a01b031690565b60006106db82610d1c565b9050806001600160a01b0316836001600160a01b03160361074d5760405162461bcd60e51b815260206004820152602160248201527f4552433732313a20617070726f76616c20746f2063757272656e74206f776e656044820152603960f91b60648201526084015b60405180910390fd5b336001600160a01b038216148061076957506107698133610585565b6107db5760405162461bcd60e51b815260206004820152603d60248201527f4552433732313a20617070726f76652063616c6c6572206973206e6f7420746f60448201527f6b656e206f776e6572206f7220617070726f76656420666f7220616c6c0000006064820152608401610744565b6107e58383611218565b505050565b6107f43382611286565b6108105760405162461bcd60e51b81526004016107449061234b565b6107e5838383611304565b600061082683610d7c565b82106108885760405162461bcd60e51b815260206004820152602b60248201527f455243373231456e756d657261626c653a206f776e657220696e646578206f7560448201526a74206f6620626f756e647360a81b6064820152608401610744565b506001600160a01b03919091166000908152600660209081526040808320938352929052205490565b6107e583838360405180602001604052806000815250610f9b565b60006108d760085490565b821061093a5760405162461bcd60e51b815260206004820152602c60248201527f455243373231456e756d657261626c653a20676c6f62616c20696e646578206f60448201526b7574206f6620626f756e647360a01b6064820152608401610744565b6008828154811061094d5761094d612398565b90600052602060002001549050919050565b6000818152600d60205260409020600381015460ff166109c15760405162461bcd60e51b815260206004820152601a60248201527f4e4654206973206e6f74206c697374656420666f722073616c650000000000006044820152606401610744565b8060010154341015610a0a5760405162461bcd60e51b8152602060048201526012602482015271496e73756666696369656e742066756e647360701b6044820152606401610744565b6000828152600e6020526040812034916064610a278460046123c4565b610a3191906123db565b905060006064610a4285605f6123c4565b610a4c91906123db565b90506000610a5a82846123fd565b610a649086612410565b84546040519192506000916001600160a01b039091169085908381818185875af1925050503d8060008114610ab5576040519150601f19603f3d011682016040523d82523d6000602084013e610aba565b606091505b505060018601546040519192506000916001600160a01b039091169085908381818185875af1925050503d8060008114610b10576040519150601f19603f3d011682016040523d82523d6000602084013e610b15565b606091505b505060028701546040519192506000916001600160a01b039091169085908381818185875af1925050503d8060008114610b6b576040519150601f19603f3d011682016040523d82523d6000602084013e610b70565b606091505b50509050828015610b7e5750815b8015610b875750805b610bc55760405162461bcd60e51b815260206004820152600f60248201526e151c985b9cd9995c8819985a5b1959608a1b6044820152606401610744565b8854610bdb906001600160a01b0316338c611304565b60008960030160006101000a81548160ff021916908315150217905550338760010160006101000a8154816001600160a01b0302191690836001600160a01b031602179055506040518060600160405280336001600160a01b0316815260200189815260200142815250600f60008c815260200190815260200160002060008201518160000160006101000a8154816001600160a01b0302191690836001600160a01b0316021790555060208201518160010155604082015181600201559050507f8562eb94748e30bb0071e932744ce902b460c683474fcb3bfd567ffa16b1afb28a338b60000160009054906101000a90046001600160a01b03168b604051610d0894939291909384526001600160a01b03928316602085015291166040830152606082015260800190565b60405180910390a150505050505050505050565b6000818152600260205260408120546001600160a01b0316806106115760405162461bcd60e51b8152602060048201526018602482015277115490cdcc8c4e881a5b9d985b1a59081d1bdad95b88125160421b6044820152606401610744565b60006001600160a01b038216610de65760405162461bcd60e51b815260206004820152602960248201527f4552433732313a2061646472657373207a65726f206973206e6f7420612076616044820152683634b21037bbb732b960b91b6064820152608401610744565b506001600160a01b031660009081526003602052604090205490565b610e0a611475565b610e1460006114cf565b565b60008111610e665760405162461bcd60e51b815260206004820152601f60248201527f5072696365206d7573742062652067726561746572207468616e207a65726f006044820152606401610744565b33610e7083610d1c565b6001600160a01b031614610ec65760405162461bcd60e51b815260206004820152601760248201527f4f6e6c79206f776e65722063616e206c697374204e46540000000000000000006044820152606401610744565b604080516080810182523380825260208083018581528385018681526001606080870182815260008b8152600d8752899020975188546001600160a01b0319166001600160a01b039091161788559351918701919091559051600286015590516003909401805460ff1916941515949094179093558351868152908101919091529182018390527f5f9c03de076f5063cd3ebcfe8ef7aa8af378e4b35a83c77ba9777e97083879a291015b60405180910390a15050565b60606001805461062690612311565b610f97338383611521565b5050565b610fa53383611286565b610fc15760405162461bcd60e51b81526004016107449061234b565b610fcd848484846115ef565b50505050565b6000808451116110255760405162461bcd60e51b815260206004820152601960248201527f546f6b656e205552492063616e6e6f7420626520656d707479000000000000006044820152606401610744565b600c805490600061103583612423565b9091555050600c546110478682611622565b61105181866117bb565b604080516060810182526001600160a01b0380871682523360208084019182528783168486019081526000878152600e90925290859020935184549084166001600160a01b03199182161785559151600185018054918516918416919091179055516002909301805493831693909116929092179091559051908716907fe7cd4ce7f2a465edc730269a1305e8a48bad821e8fb7e152ec413829c01a53c4906110fd908490899061243c565b60405180910390a290505b949350505050565b60606106118261187f565b611123611475565b6001600160a01b0381166111885760405162461bcd60e51b815260206004820152602660248201527f4f776e61626c653a206e6577206f776e657220697320746865207a65726f206160448201526564647265737360d01b6064820152608401610744565b611191816114cf565b50565b60006001600160e01b03198216632483248360e11b1480610611575061061182611987565b6000818152600260205260409020546001600160a01b03166111915760405162461bcd60e51b8152602060048201526018602482015277115490cdcc8c4e881a5b9d985b1a59081d1bdad95b88125160421b6044820152606401610744565b600081815260046020526040902080546001600160a01b0319166001600160a01b038416908117909155819061124d82610d1c565b6001600160a01b03167f8c5be1e5ebec7d5bd14f71427d1e84f3dd0314c0f7b2291e5b200ac8c7c3b92560405160405180910390a45050565b60008061129283610d1c565b9050806001600160a01b0316846001600160a01b031614806112d957506001600160a01b0380821660009081526005602090815260408083209388168352929052205460ff165b806111085750836001600160a01b03166112f2846106a9565b6001600160a01b031614949350505050565b826001600160a01b031661131782610d1c565b6001600160a01b03161461133d5760405162461bcd60e51b815260040161074490612455565b6001600160a01b03821661139f5760405162461bcd60e51b8152602060048201526024808201527f4552433732313a207472616e7366657220746f20746865207a65726f206164646044820152637265737360e01b6064820152608401610744565b6113ac83838360016119ac565b826001600160a01b03166113bf82610d1c565b6001600160a01b0316146113e55760405162461bcd60e51b815260040161074490612455565b600081815260046020908152604080832080546001600160a01b03199081169091556001600160a01b0387811680865260038552838620805460001901905590871680865283862080546001019055868652600290945282852080549092168417909155905184937fddf252ad1be2c89b69c2b068fc378daa952ba7f163c4a11628f55a4df523b3ef91a4505050565b600b546001600160a01b03163314610e145760405162461bcd60e51b815260206004820181905260248201527f4f776e61626c653a2063616c6c6572206973206e6f7420746865206f776e65726044820152606401610744565b600b80546001600160a01b038381166001600160a01b0319831681179093556040519116919082907f8be0079c531659141344cd1fd0a4f28419497f9722a3daafe3b4186f6b6457e090600090a35050565b816001600160a01b0316836001600160a01b0316036115825760405162461bcd60e51b815260206004820152601960248201527f4552433732313a20617070726f766520746f2063616c6c6572000000000000006044820152606401610744565b6001600160a01b03838116600081815260056020908152604080832094871680845294825291829020805460ff191686151590811790915591519182527f17307eab39ab6107e8899845ad3d59bd9653f200f220920489ca2b5937696c31910160405180910390a3505050565b6115fa848484611304565b611606848484846119b8565b610fcd5760405162461bcd60e51b81526004016107449061249a565b6001600160a01b0382166116785760405162461bcd60e51b815260206004820181905260248201527f4552433732313a206d696e7420746f20746865207a65726f20616464726573736044820152606401610744565b6000818152600260205260409020546001600160a01b0316156116dd5760405162461bcd60e51b815260206004820152601c60248201527f4552433732313a20746f6b656e20616c7265616479206d696e746564000000006044820152606401610744565b6116eb6000838360016119ac565b6000818152600260205260409020546001600160a01b0316156117505760405162461bcd60e51b815260206004820152601c60248201527f4552433732313a20746f6b656e20616c7265616479206d696e746564000000006044820152606401610744565b6001600160a01b038216600081815260036020908152604080832080546001019055848352600290915280822080546001600160a01b0319168417905551839291907fddf252ad1be2c89b69c2b068fc378daa952ba7f163c4a11628f55a4df523b3ef908290a45050565b6000828152600260205260409020546001600160a01b03166118365760405162461bcd60e51b815260206004820152602e60248201527f45524337323155524953746f726167653a2055524920736574206f66206e6f6e60448201526d32bc34b9ba32b73a103a37b5b2b760911b6064820152608401610744565b6000828152600a6020526040902061184e828261253a565b506040518281527ff8e1a15aba9398e019f0b49df1a4fde98ee17ae345cb5f6b5e2c27f5033e8ce790602001610f71565b606061188a826111b9565b6000828152600a6020526040812080546118a390612311565b80601f01602080910402602001604051908101604052809291908181526020018280546118cf90612311565b801561191c5780601f106118f15761010080835404028352916020019161191c565b820191906000526020600020905b8154815290600101906020018083116118ff57829003601f168201915b50505050509050600061193a60408051602081019091526000815290565b9050805160000361194c575092915050565b81511561197e5780826040516020016119669291906125fa565b60405160208183030381529060405292505050919050565b61110884611ab6565b60006001600160e01b0319821663780e9d6360e01b1480610611575061061182611b2a565b610fcd84848484611b7a565b60006001600160a01b0384163b15611aae57604051630a85bd0160e11b81526001600160a01b0385169063150b7a02906119fc903390899088908890600401612629565b6020604051808303816000875af1925050508015611a37575060408051601f3d908101601f19168201909252611a3491810190612666565b60015b611a94573d808015611a65576040519150601f19603f3d011682016040523d82523d6000602084013e611a6a565b606091505b508051600003611a8c5760405162461bcd60e51b81526004016107449061249a565b805181602001fd5b6001600160e01b031916630a85bd0160e11b149050611108565b506001611108565b6060611ac1826111b9565b6000611ad860408051602081019091526000815290565b90506000815111611af85760405180602001604052806000815250611b23565b80611b0284611cae565b604051602001611b139291906125fa565b6040516020818303038152906040525b9392505050565b60006001600160e01b031982166380ac58cd60e01b1480611b5b57506001600160e01b03198216635b5e139f60e01b145b8061061157506301ffc9a760e01b6001600160e01b0319831614610611565b6001811115611be95760405162461bcd60e51b815260206004820152603560248201527f455243373231456e756d657261626c653a20636f6e7365637574697665207472604482015274185b9cd9995c9cc81b9bdd081cdd5c1c1bdc9d1959605a1b6064820152608401610744565b816001600160a01b038516611c4557611c4081600880546000838152600960205260408120829055600182018355919091527ff3f7a9fe364faab93b216da50a3214154f22a0a2b415b23a84c8169e8b636ee30155565b611c68565b836001600160a01b0316856001600160a01b031614611c6857611c688582611d41565b6001600160a01b038416611c8457611c7f81611dde565b611ca7565b846001600160a01b0316846001600160a01b031614611ca757611ca78482611e8d565b5050505050565b60606000611cbb83611ed1565b600101905060008167ffffffffffffffff811115611cdb57611cdb612153565b6040519080825280601f01601f191660200182016040528015611d05576020820181803683370190505b5090508181016020015b600019016f181899199a1a9b1b9c1cb0b131b232b360811b600a86061a8153600a8504945084611d0f57509392505050565b60006001611d4e84610d7c565b611d589190612410565b600083815260076020526040902054909150808214611dab576001600160a01b03841660009081526006602090815260408083208584528252808320548484528184208190558352600790915290208190555b5060009182526007602090815260408084208490556001600160a01b039094168352600681528383209183525290812055565b600854600090611df090600190612410565b60008381526009602052604081205460088054939450909284908110611e1857611e18612398565b906000526020600020015490508060088381548110611e3957611e39612398565b6000918252602080832090910192909255828152600990915260408082208490558582528120556008805480611e7157611e71612683565b6001900381819060005260206000200160009055905550505050565b6000611e9883610d7c565b6001600160a01b039093166000908152600660209081526040808320868452825280832085905593825260079052919091209190915550565b60008072184f03e93ff9f4daa797ed6e38ed64bf6a1f0160401b8310611f105772184f03e93ff9f4daa797ed6e38ed64bf6a1f0160401b830492506040015b6d04ee2d6d415b85acef81000000008310611f3c576d04ee2d6d415b85acef8100000000830492506020015b662386f26fc100008310611f5a57662386f26fc10000830492506010015b6305f5e1008310611f72576305f5e100830492506008015b6127108310611f8657612710830492506004015b60648310611f98576064830492506002015b600a83106106115760010192915050565b6001600160e01b03198116811461119157600080fd5b600060208284031215611fd157600080fd5b8135611b2381611fa9565b60005b83811015611ff7578181015183820152602001611fdf565b50506000910152565b60008151808452612018816020860160208601611fdc565b601f01601f19169290920160200192915050565b602081526000611b236020830184612000565b60006020828403121561205157600080fd5b5035919050565b80356001600160a01b038116811461206f57600080fd5b919050565b6000806040838503121561208757600080fd5b61209083612058565b946020939093013593505050565b6000806000606084860312156120b357600080fd5b6120bc84612058565b92506120ca60208501612058565b9150604084013590509250925092565b6000602082840312156120ec57600080fd5b611b2382612058565b6000806040838503121561210857600080fd5b50508035926020909101359150565b6000806040838503121561212a57600080fd5b61213383612058565b91506020830135801515811461214857600080fd5b809150509250929050565b634e487b7160e01b600052604160045260246000fd5b600067ffffffffffffffff8084111561218457612184612153565b604051601f8501601f19908116603f011681019082821181831017156121ac576121ac612153565b816040528093508581528686860111156121c557600080fd5b858560208301376000602087830101525050509392505050565b600080600080608085870312156121f557600080fd5b6121fe85612058565b935061220c60208601612058565b925060408501359150606085013567ffffffffffffffff81111561222f57600080fd5b8501601f8101871361224057600080fd5b61224f87823560208401612169565b91505092959194509250565b6000806000806080858703121561227157600080fd5b61227a85612058565b9350602085013567ffffffffffffffff81111561229657600080fd5b8501601f810187136122a757600080fd5b6122b687823560208401612169565b9350506122c560408601612058565b91506122d360608601612058565b905092959194509250565b600080604083850312156122f157600080fd5b6122fa83612058565b915061230860208401612058565b90509250929050565b600181811c9082168061232557607f821691505b60208210810361234557634e487b7160e01b600052602260045260246000fd5b50919050565b6020808252602d908201527f4552433732313a2063616c6c6572206973206e6f7420746f6b656e206f776e6560408201526c1c881bdc88185c1c1c9bdd9959609a1b606082015260800190565b634e487b7160e01b600052603260045260246000fd5b634e487b7160e01b600052601160045260246000fd5b8082028115828204841417610611576106116123ae565b6000826123f857634e487b7160e01b600052601260045260246000fd5b500490565b80820180821115610611576106116123ae565b81810381811115610611576106116123ae565b600060018201612435576124356123ae565b5060010190565b8281526040602082015260006111086040830184612000565b60208082526025908201527f4552433732313a207472616e736665722066726f6d20696e636f72726563742060408201526437bbb732b960d91b606082015260800190565b60208082526032908201527f4552433732313a207472616e7366657220746f206e6f6e20455243373231526560408201527131b2b4bb32b91034b6b83632b6b2b73a32b960711b606082015260800190565b601f8211156107e557600081815260208120601f850160051c810160208610156125135750805b601f850160051c820191505b818110156125325782815560010161251f565b505050505050565b815167ffffffffffffffff81111561255457612554612153565b612568816125628454612311565b846124ec565b602080601f83116001811461259d57600084156125855750858301515b600019600386901b1c1916600185901b178555612532565b600085815260208120601f198616915b828110156125cc578886015182559484019460019091019084016125ad565b50858210156125ea5787850151600019600388901b60f8161c191681555b5050505050600190811b01905550565b6000835161260c818460208801611fdc565b835190830190612620818360208801611fdc565b01949350505050565b6001600160a01b038581168252841660208201526040810183905260806060820181905260009061265c90830184612000565b9695505050505050565b60006020828403121561267857600080fd5b8151611b2381611fa9565b634e487b7160e01b600052603160045260246000fdfea264697066735822122060374e8ca819ec90cb684e8f2cca9d7a32e0eb1d30f402cbc8682333b263c01964736f6c63430008110033",
  "immutableReferences": {},
  "source": "// SPDX-License-Identifier: MIT\r\npragma solidity ^0.8.17;\r\n\r\nimport \"@openzeppelin/contracts/token/ERC721/extensions/ERC721Enumerable.sol\";\r\nimport \"@openzeppelin/contracts/token/ERC721/extensions/ERC721URIStorage.sol\";\r\nimport \"@openzeppelin/contracts/access/Ownable.sol\";\r\n\r\ncontract NFTMarketplace is ERC721, ERC721Enumerable, ERC721URIStorage, Ownable {\r\n    // NFT   \r\n    uint256 private _tokenIds;\r\n\r\n\r\n    //    \r\n    struct Listing {\r\n        address seller;\r\n        uint256 price; //  \r\n        uint256 amount; //   ( )\r\n        bool isListed;\r\n    }\r\n\r\n    //     (, ,  )\r\n    struct RoyaltyInfo {\r\n        address originalCreator;\r\n        address ownerShare;\r\n        address adminWallet;\r\n    }\r\n    // Purchase    \r\n    struct PurchaseRecord {\r\n        address buyer;\r\n        uint256 price;\r\n        uint256 purchaseTime;\r\n    }\r\n\r\n    mapping(uint256 => Listing) public listings;\r\n    mapping(uint256 => RoyaltyInfo) public royaltyInfoByToken;\r\n    mapping(uint256 => PurchaseRecord) public purchaseRecords;\r\n\r\n    //  \r\n    event Minted(address indexed to, uint256 tokenId, string tokenURI);\r\n    event NFTListed(uint256 tokenId, address seller, uint256 price);\r\n    event NFTSold(uint256 tokenId, address buyer, address seller, uint256 price);\r\n\r\n    constructor() ERC721(\"Chaintoon\", \"Chaintoon\") {}\r\n\r\n    /**\r\n     * @dev NFT   (  ).\r\n     * @param to  NFT  \r\n     * @param _tokenURI NFT  URI\r\n     * @param originalCreator   \r\n     * @param adminWallet   \r\n     * @return newTokenId  NFT tokenId\r\n     */\r\n    function mint(\r\n        address to,\r\n        string memory _tokenURI,\r\n        address originalCreator,\r\n        address adminWallet\r\n    ) public returns (uint256) {\r\n        require(bytes(_tokenURI).length > 0, \"Token URI cannot be empty\");\r\n\r\n        _tokenIds++;\r\n        uint256 newTokenId = _tokenIds;\r\n\r\n        //  NFT \r\n        _mint(to, newTokenId);\r\n        _setTokenURI(newTokenId, _tokenURI);\r\n\r\n        //   \r\n        royaltyInfoByToken[newTokenId] = RoyaltyInfo({\r\n            originalCreator: originalCreator,\r\n            ownerShare: msg.sender,\r\n            adminWallet: adminWallet\r\n        });\r\n\r\n        emit Minted(to, newTokenId, _tokenURI);\r\n        return newTokenId;\r\n    }\r\n    /**\r\n     * @dev NFT    .\r\n     * @param tokenId   ID\r\n     * @param price   (Wei )\r\n     */\r\n    function listNFT(uint256 tokenId, uint256 price) public {\r\n        require(price > 0, \"Price must be greater than zero\");\r\n        // NFT     \r\n        require(ownerOf(tokenId) == msg.sender, \"Only owner can list NFT\");\r\n\r\n        listings[tokenId] = Listing({\r\n            seller: msg.sender,\r\n            price: price,\r\n            amount: price, //   amount \r\n            isListed: true\r\n        });\r\n        emit NFTListed(tokenId, msg.sender, price);\r\n    }\r\n\r\n    /**\r\n     * @dev      .\r\n     * @param tokenId   ID\r\n     * @return bool  \r\n     */\r\n    function isListed(uint256 tokenId) public view returns (bool) {\r\n        return listings[tokenId].isListed;\r\n    }\r\n\r\n    /**\r\n     * @dev NFT   (   ).\r\n     * @param tokenId   ID\r\n     */\r\n    function buyNFT(uint256 tokenId) public payable {\r\n        Listing storage listing = listings[tokenId];\r\n        require(listing.isListed, \"NFT is not listed for sale\");\r\n        require(msg.value >= listing.price, \"Insufficient funds\");\r\n\r\n        uint256 salePrice = msg.value;  //    \r\n\r\n        //  \r\n        RoyaltyInfo storage info = royaltyInfoByToken[tokenId];\r\n\r\n        // 1) msg.value  4%, 95% \r\n        uint256 originalCreatorShare = (salePrice * 4) / 100;\r\n        uint256 ownerShare           = (salePrice * 95) / 100;\r\n\r\n        // 2)     \r\n        uint256 adminShare = salePrice - (originalCreatorShare + ownerShare);\r\n\r\n        // 3)  (call  +  )\r\n        (bool ok1,) = payable(info.originalCreator).call{value: originalCreatorShare}(\"\");\r\n        (bool ok2,) = payable(info.ownerShare).call{value: ownerShare}(\"\");\r\n        (bool ok3,) = payable(info.adminWallet).call{value: adminShare}(\"\");\r\n        require(ok1 && ok2 && ok3, \"Transfer failed\");\r\n\r\n        // 4) NFT  \r\n        _transfer(listing.seller, msg.sender, tokenId);\r\n        listing.isListed = false;\r\n\r\n        // 5)    ownerShare  \r\n        info.ownerShare = msg.sender;\r\n\r\n        // 6)   \r\n        purchaseRecords[tokenId] = PurchaseRecord({\r\n            buyer: msg.sender,\r\n            price: salePrice,\r\n            purchaseTime: block.timestamp\r\n        });\r\n\r\n        emit NFTSold(tokenId, msg.sender, listing.seller, salePrice);\r\n    }\r\n    //  ERC721Enumerable  ERC721URIStorage       .\r\n\r\n    function _beforeTokenTransfer(\r\n        address from,\r\n        address to,\r\n        uint256 tokenId,\r\n        uint256 batchSize\r\n    ) internal virtual override(ERC721, ERC721Enumerable) {\r\n        super._beforeTokenTransfer(from, to, tokenId, batchSize);\r\n    }\r\n\r\n    function supportsInterface(\r\n        bytes4 interfaceId\r\n    )\r\n        public\r\n        view\r\n        virtual\r\n        override(ERC721, ERC721Enumerable, ERC721URIStorage)\r\n        returns (bool)\r\n    {\r\n        return super.supportsInterface(interfaceId);\r\n    }\r\n\r\n    function _burn(\r\n        uint256 tokenId\r\n    ) internal virtual override(ERC721, ERC721URIStorage) {\r\n        super._burn(tokenId);\r\n    }\r\n\r\n    function tokenURI(\r\n        uint256 tokenId\r\n    )\r\n        public\r\n        view\r\n        virtual\r\n        override(ERC721, ERC721URIStorage)\r\n        returns (string memory)\r\n    {\r\n        return super.tokenURI(tokenId);\r\n    }\r\n}\r\n",
  "sourcePath": "C:\\ssafy\\S12P21C109\\contracts\\contracts\\NFTMarketplace.sol",
  "compiler": {
    "name": "solc",
    "version": "0.8.17+commit.8df45f5f.Emscripten.clang"
  },
  "schemaVersion": "3.4.16",
  "updatedAt": "2025-04-08T07:27:05.819Z",
  "networkType": "ethereum",
  "devdoc": {
    "kind": "dev",
    "methods": {
      "approve(address,uint256)": {
        "details": "See {IERC721-approve}."
      },
      "balanceOf(address)": {
        "details": "See {IERC721-balanceOf}."
      },
      "buyNFT(uint256)": {
        "details": "NFT   (   ).",
        "params": {
          "tokenId": "  ID"
        }
      },
      "getApproved(uint256)": {
        "details": "See {IERC721-getApproved}."
      },
      "isApprovedForAll(address,address)": {
        "details": "See {IERC721-isApprovedForAll}."
      },
      "isListed(uint256)": {
        "details": "     .",
        "params": {
          "tokenId": "  ID"
        },
        "returns": {
          "_0": "bool  "
        }
      },
      "listNFT(uint256,uint256)": {
        "details": "NFT    .",
        "params": {
          "price": "  (Wei )",
          "tokenId": "  ID"
        }
      },
      "mint(address,string,address,address)": {
        "details": "NFT   (  ).",
        "params": {
          "_tokenURI": "NFT  URI",
          "adminWallet": "  ",
          "originalCreator": "  ",
          "to": " NFT  "
        },
        "returns": {
          "_0": "newTokenId  NFT tokenId"
        }
      },
      "name()": {
        "details": "See {IERC721Metadata-name}."
      },
      "owner()": {
        "details": "Returns the address of the current owner."
      },
      "ownerOf(uint256)": {
        "details": "See {IERC721-ownerOf}."
      },
      "renounceOwnership()": {
        "details": "Leaves the contract without owner. It will not be possible to call `onlyOwner` functions. Can only be called by the current owner. NOTE: Renouncing ownership will leave the contract without an owner, thereby disabling any functionality that is only available to the owner."
      },
      "safeTransferFrom(address,address,uint256)": {
        "details": "See {IERC721-safeTransferFrom}."
      },
      "safeTransferFrom(address,address,uint256,bytes)": {
        "details": "See {IERC721-safeTransferFrom}."
      },
      "setApprovalForAll(address,bool)": {
        "details": "See {IERC721-setApprovalForAll}."
      },
      "symbol()": {
        "details": "See {IERC721Metadata-symbol}."
      },
      "tokenByIndex(uint256)": {
        "details": "See {IERC721Enumerable-tokenByIndex}."
      },
      "tokenOfOwnerByIndex(address,uint256)": {
        "details": "See {IERC721Enumerable-tokenOfOwnerByIndex}."
      },
      "totalSupply()": {
        "details": "See {IERC721Enumerable-totalSupply}."
      },
      "transferFrom(address,address,uint256)": {
        "details": "See {IERC721-transferFrom}."
      },
      "transferOwnership(address)": {
        "details": "Transfers ownership of the contract to a new account (`newOwner`). Can only be called by the current owner."
      }
    },
    "version": 1
  },
  "userdoc": {
    "kind": "user",
    "methods": {},
    "version": 1
  }
}