{
  "contractName": "NFTMarketplace",
  "abi": [
    {
      "inputs": [],
      "stateMutability": "nonpayable",
      "type": "constructor"
    },
    {
      "anonymous": false,
      "inputs": [
        {
          "indexed": true,
          "internalType": "address",
          "name": "owner",
          "type": "address"
        },
        {
          "indexed": true,
          "internalType": "address",
          "name": "approved",
          "type": "address"
        },
        {
          "indexed": true,
          "internalType": "uint256",
          "name": "tokenId",
          "type": "uint256"
        }
      ],
      "name": "Approval",
      "type": "event"
    },
    {
      "anonymous": false,
      "inputs": [
        {
          "indexed": true,
          "internalType": "address",
          "name": "owner",
          "type": "address"
        },
        {
          "indexed": true,
          "internalType": "address",
          "name": "operator",
          "type": "address"
        },
        {
          "indexed": false,
          "internalType": "bool",
          "name": "approved",
          "type": "bool"
        }
      ],
      "name": "ApprovalForAll",
      "type": "event"
    },
    {
      "anonymous": false,
      "inputs": [
        {
          "indexed": false,
          "internalType": "uint256",
          "name": "_fromTokenId",
          "type": "uint256"
        },
        {
          "indexed": false,
          "internalType": "uint256",
          "name": "_toTokenId",
          "type": "uint256"
        }
      ],
      "name": "BatchMetadataUpdate",
      "type": "event"
    },
    {
      "anonymous": false,
      "inputs": [
        {
          "indexed": false,
          "internalType": "uint256",
          "name": "_tokenId",
          "type": "uint256"
        }
      ],
      "name": "MetadataUpdate",
      "type": "event"
    },
    {
      "anonymous": false,
      "inputs": [
        {
          "indexed": false,
          "internalType": "uint256",
          "name": "tokenId",
          "type": "uint256"
        },
        {
          "indexed": false,
          "internalType": "address",
          "name": "seller",
          "type": "address"
        },
        {
          "indexed": false,
          "internalType": "uint256",
          "name": "price",
          "type": "uint256"
        }
      ],
      "name": "NFTListed",
      "type": "event"
    },
    {
      "anonymous": false,
      "inputs": [
        {
          "indexed": true,
          "internalType": "address",
          "name": "to",
          "type": "address"
        },
        {
          "indexed": false,
          "internalType": "uint256",
          "name": "tokenId",
          "type": "uint256"
        },
        {
          "indexed": false,
          "internalType": "string",
          "name": "tokenURI",
          "type": "string"
        }
      ],
      "name": "NFTMinted",
      "type": "event"
    },
    {
      "anonymous": false,
      "inputs": [
        {
          "indexed": false,
          "internalType": "uint256",
          "name": "tokenId",
          "type": "uint256"
        },
        {
          "indexed": false,
          "internalType": "address",
          "name": "buyer",
          "type": "address"
        },
        {
          "indexed": false,
          "internalType": "uint256",
          "name": "price",
          "type": "uint256"
        }
      ],
      "name": "NFTSold",
      "type": "event"
    },
    {
      "anonymous": false,
      "inputs": [
        {
          "indexed": true,
          "internalType": "address",
          "name": "previousOwner",
          "type": "address"
        },
        {
          "indexed": true,
          "internalType": "address",
          "name": "newOwner",
          "type": "address"
        }
      ],
      "name": "OwnershipTransferred",
      "type": "event"
    },
    {
      "anonymous": false,
      "inputs": [
        {
          "indexed": true,
          "internalType": "address",
          "name": "from",
          "type": "address"
        },
        {
          "indexed": true,
          "internalType": "address",
          "name": "to",
          "type": "address"
        },
        {
          "indexed": true,
          "internalType": "uint256",
          "name": "tokenId",
          "type": "uint256"
        }
      ],
      "name": "Transfer",
      "type": "event"
    },
    {
      "inputs": [
        {
          "internalType": "address",
          "name": "to",
          "type": "address"
        },
        {
          "internalType": "uint256",
          "name": "tokenId",
          "type": "uint256"
        }
      ],
      "name": "approve",
      "outputs": [],
      "stateMutability": "nonpayable",
      "type": "function"
    },
    {
      "inputs": [
        {
          "internalType": "address",
          "name": "owner",
          "type": "address"
        }
      ],
      "name": "balanceOf",
      "outputs": [
        {
          "internalType": "uint256",
          "name": "",
          "type": "uint256"
        }
      ],
      "stateMutability": "view",
      "type": "function",
      "constant": true
    },
    {
      "inputs": [
        {
          "internalType": "uint256",
          "name": "tokenId",
          "type": "uint256"
        }
      ],
      "name": "getApproved",
      "outputs": [
        {
          "internalType": "address",
          "name": "",
          "type": "address"
        }
      ],
      "stateMutability": "view",
      "type": "function",
      "constant": true
    },
    {
      "inputs": [
        {
          "internalType": "address",
          "name": "owner",
          "type": "address"
        },
        {
          "internalType": "address",
          "name": "operator",
          "type": "address"
        }
      ],
      "name": "isApprovedForAll",
      "outputs": [
        {
          "internalType": "bool",
          "name": "",
          "type": "bool"
        }
      ],
      "stateMutability": "view",
      "type": "function",
      "constant": true
    },
    {
      "inputs": [
        {
          "internalType": "uint256",
          "name": "",
          "type": "uint256"
        }
      ],
      "name": "listings",
      "outputs": [
        {
          "internalType": "address",
          "name": "seller",
          "type": "address"
        },
        {
          "internalType": "uint256",
          "name": "price",
          "type": "uint256"
        },
        {
          "internalType": "bool",
          "name": "isListed",
          "type": "bool"
        }
      ],
      "stateMutability": "view",
      "type": "function",
      "constant": true
    },
    {
      "inputs": [],
      "name": "name",
      "outputs": [
        {
          "internalType": "string",
          "name": "",
          "type": "string"
        }
      ],
      "stateMutability": "view",
      "type": "function",
      "constant": true
    },
    {
      "inputs": [],
      "name": "owner",
      "outputs": [
        {
          "internalType": "address",
          "name": "",
          "type": "address"
        }
      ],
      "stateMutability": "view",
      "type": "function",
      "constant": true
    },
    {
      "inputs": [
        {
          "internalType": "uint256",
          "name": "tokenId",
          "type": "uint256"
        }
      ],
      "name": "ownerOf",
      "outputs": [
        {
          "internalType": "address",
          "name": "",
          "type": "address"
        }
      ],
      "stateMutability": "view",
      "type": "function",
      "constant": true
    },
    {
      "inputs": [],
      "name": "renounceOwnership",
      "outputs": [],
      "stateMutability": "nonpayable",
      "type": "function"
    },
    {
      "inputs": [
        {
          "internalType": "uint256",
          "name": "",
          "type": "uint256"
        }
      ],
      "name": "royaltyInfoByToken",
      "outputs": [
        {
          "internalType": "address",
          "name": "originalCreator",
          "type": "address"
        },
        {
          "internalType": "address",
          "name": "registrant",
          "type": "address"
        },
        {
          "internalType": "address",
          "name": "adminWallet",
          "type": "address"
        }
      ],
      "stateMutability": "view",
      "type": "function",
      "constant": true
    },
    {
      "inputs": [
        {
          "internalType": "address",
          "name": "from",
          "type": "address"
        },
        {
          "internalType": "address",
          "name": "to",
          "type": "address"
        },
        {
          "internalType": "uint256",
          "name": "tokenId",
          "type": "uint256"
        }
      ],
      "name": "safeTransferFrom",
      "outputs": [],
      "stateMutability": "nonpayable",
      "type": "function"
    },
    {
      "inputs": [
        {
          "internalType": "address",
          "name": "from",
          "type": "address"
        },
        {
          "internalType": "address",
          "name": "to",
          "type": "address"
        },
        {
          "internalType": "uint256",
          "name": "tokenId",
          "type": "uint256"
        },
        {
          "internalType": "bytes",
          "name": "data",
          "type": "bytes"
        }
      ],
      "name": "safeTransferFrom",
      "outputs": [],
      "stateMutability": "nonpayable",
      "type": "function"
    },
    {
      "inputs": [
        {
          "internalType": "address",
          "name": "operator",
          "type": "address"
        },
        {
          "internalType": "bool",
          "name": "approved",
          "type": "bool"
        }
      ],
      "name": "setApprovalForAll",
      "outputs": [],
      "stateMutability": "nonpayable",
      "type": "function"
    },
    {
      "inputs": [
        {
          "internalType": "bytes4",
          "name": "interfaceId",
          "type": "bytes4"
        }
      ],
      "name": "supportsInterface",
      "outputs": [
        {
          "internalType": "bool",
          "name": "",
          "type": "bool"
        }
      ],
      "stateMutability": "view",
      "type": "function",
      "constant": true
    },
    {
      "inputs": [],
      "name": "symbol",
      "outputs": [
        {
          "internalType": "string",
          "name": "",
          "type": "string"
        }
      ],
      "stateMutability": "view",
      "type": "function",
      "constant": true
    },
    {
      "inputs": [
        {
          "internalType": "uint256",
          "name": "tokenId",
          "type": "uint256"
        }
      ],
      "name": "tokenURI",
      "outputs": [
        {
          "internalType": "string",
          "name": "",
          "type": "string"
        }
      ],
      "stateMutability": "view",
      "type": "function",
      "constant": true
    },
    {
      "inputs": [
        {
          "internalType": "address",
          "name": "from",
          "type": "address"
        },
        {
          "internalType": "address",
          "name": "to",
          "type": "address"
        },
        {
          "internalType": "uint256",
          "name": "tokenId",
          "type": "uint256"
        }
      ],
      "name": "transferFrom",
      "outputs": [],
      "stateMutability": "nonpayable",
      "type": "function"
    },
    {
      "inputs": [
        {
          "internalType": "address",
          "name": "newOwner",
          "type": "address"
        }
      ],
      "name": "transferOwnership",
      "outputs": [],
      "stateMutability": "nonpayable",
      "type": "function"
    },
    {
      "inputs": [
        {
          "internalType": "address",
          "name": "to",
          "type": "address"
        },
        {
          "internalType": "string",
          "name": "tokenURI",
          "type": "string"
        },
        {
          "internalType": "address",
          "name": "originalCreator",
          "type": "address"
        },
        {
          "internalType": "address",
          "name": "registrant",
          "type": "address"
        },
        {
          "internalType": "address",
          "name": "adminWallet",
          "type": "address"
        }
      ],
      "name": "mint",
      "outputs": [
        {
          "internalType": "uint256",
          "name": "",
          "type": "uint256"
        }
      ],
      "stateMutability": "nonpayable",
      "type": "function"
    },
    {
      "inputs": [
        {
          "internalType": "uint256",
          "name": "tokenId",
          "type": "uint256"
        },
        {
          "internalType": "uint256",
          "name": "price",
          "type": "uint256"
        }
      ],
      "name": "listNFT",
      "outputs": [],
      "stateMutability": "nonpayable",
      "type": "function"
    },
    {
      "inputs": [
        {
          "internalType": "uint256",
          "name": "tokenId",
          "type": "uint256"
        }
      ],
      "name": "isListed",
      "outputs": [
        {
          "internalType": "bool",
          "name": "",
          "type": "bool"
        }
      ],
      "stateMutability": "view",
      "type": "function",
      "constant": true
    },
    {
      "inputs": [
        {
          "internalType": "uint256",
          "name": "tokenId",
          "type": "uint256"
        }
      ],
      "name": "buyNFT",
      "outputs": [],
      "stateMutability": "payable",
      "type": "function",
      "payable": true
    }
  ],
  "bytecode": "0x60806040523480156200001157600080fd5b5060408051808201825260098082526821b430b4b73a37b7b760b91b602080840182905284518086019095529184529083015290600062000053838262000180565b50600162000062828262000180565b5050506200007f620000796200008560201b60201c565b62000089565b6200024c565b3390565b600780546001600160a01b038381166001600160a01b0319831681179093556040519116919082907f8be0079c531659141344cd1fd0a4f28419497f9722a3daafe3b4186f6b6457e090600090a35050565b634e487b7160e01b600052604160045260246000fd5b600181811c908216806200010657607f821691505b6020821081036200012757634e487b7160e01b600052602260045260246000fd5b50919050565b601f8211156200017b57600081815260208120601f850160051c81016020861015620001565750805b601f850160051c820191505b81811015620001775782815560010162000162565b5050505b505050565b81516001600160401b038111156200019c576200019c620000db565b620001b481620001ad8454620000f1565b846200012d565b602080601f831160018114620001ec5760008415620001d35750858301515b600019600386901b1c1916600185901b17855562000177565b600085815260208120601f198616915b828110156200021d57888601518255948401946001909101908401620001fc565b50858210156200023c5787850151600019600388901b60f8161c191681555b5050505050600190811b01905550565b611ffa806200025c6000396000f3fe6080604052600436106101355760003560e01c80638da5cb5b116100ab578063c6a8aecc1161006f578063c6a8aecc146103a7578063c87b56dd146103c7578063de74e57b146103e7578063e985e9c514610457578063f2fde38b14610477578063fcce48831461049757600080fd5b80638da5cb5b1461031457806394383f141461033257806395d89b4114610352578063a22cb46514610367578063b88d4fde1461038757600080fd5b80632e39c554116100fd5780632e39c5541461020b57806342842e0e1461027e57806351ed82881461029e5780636352211e146102b157806370a08231146102d1578063715018a6146102ff57600080fd5b806301ffc9a71461013a57806306fdde031461016f578063081812fc14610191578063095ea7b3146101c957806323b872dd146101eb575b600080fd5b34801561014657600080fd5b5061015a61015536600461192b565b6104ca565b60405190151581526020015b60405180910390f35b34801561017b57600080fd5b506101846104f5565b6040516101669190611998565b34801561019d57600080fd5b506101b16101ac3660046119ab565b610587565b6040516001600160a01b039091168152602001610166565b3480156101d557600080fd5b506101e96101e43660046119e0565b6105ae565b005b3480156101f757600080fd5b506101e9610206366004611a0a565b6106c8565b34801561021757600080fd5b506102546102263660046119ab565b600a602052600090815260409020805460018201546002909201546001600160a01b03918216928216911683565b604080516001600160a01b0394851681529284166020840152921691810191909152606001610166565b34801561028a57600080fd5b506101e9610299366004611a0a565b6106f9565b6101e96102ac3660046119ab565b610714565b3480156102bd57600080fd5b506101b16102cc3660046119ab565b6109ba565b3480156102dd57600080fd5b506102f16102ec366004611a46565b610a1a565b604051908152602001610166565b34801561030b57600080fd5b506101e9610aa0565b34801561032057600080fd5b506007546001600160a01b03166101b1565b34801561033e57600080fd5b506101e961034d366004611a61565b610ab4565b34801561035e57600080fd5b50610184610c06565b34801561037357600080fd5b506101e9610382366004611a83565b610c15565b34801561039357600080fd5b506101e96103a2366004611b4b565b610c24565b3480156103b357600080fd5b506102f16103c2366004611bc7565b610c5c565b3480156103d357600080fd5b506101846103e23660046119ab565b610da3565b3480156103f357600080fd5b506104306104023660046119ab565b6009602052600090815260409020805460018201546002909201546001600160a01b03909116919060ff1683565b604080516001600160a01b0390941684526020840192909252151590820152606001610166565b34801561046357600080fd5b5061015a610472366004611c5b565b610eb3565b34801561048357600080fd5b506101e9610492366004611a46565b610ee1565b3480156104a357600080fd5b5061015a6104b23660046119ab565b60009081526009602052604090206002015460ff1690565b60006001600160e01b03198216632483248360e11b14806104ef57506104ef82610f5a565b92915050565b60606000805461050490611c8e565b80601f016020809104026020016040519081016040528092919081815260200182805461053090611c8e565b801561057d5780601f106105525761010080835404028352916020019161057d565b820191906000526020600020905b81548152906001019060200180831161056057829003601f168201915b5050505050905090565b600061059282610faa565b506000908152600460205260409020546001600160a01b031690565b60006105b9826109ba565b9050806001600160a01b0316836001600160a01b03160361062b5760405162461bcd60e51b815260206004820152602160248201527f4552433732313a20617070726f76616c20746f2063757272656e74206f776e656044820152603960f91b60648201526084015b60405180910390fd5b336001600160a01b038216148061064757506106478133610eb3565b6106b95760405162461bcd60e51b815260206004820152603d60248201527f4552433732313a20617070726f76652063616c6c6572206973206e6f7420746f60448201527f6b656e206f776e6572206f7220617070726f76656420666f7220616c6c0000006064820152608401610622565b6106c38383611009565b505050565b6106d23382611077565b6106ee5760405162461bcd60e51b815260040161062290611cc8565b6106c38383836110d5565b6106c383838360405180602001604052806000815250610c24565b600081815260096020908152604091829020825160608101845281546001600160a01b031681526001820154928101929092526002015460ff161515918101829052906107a35760405162461bcd60e51b815260206004820152601a60248201527f4e4654206973206e6f74206c697374656420666f722073616c650000000000006044820152606401610622565b80602001513410156107ec5760405162461bcd60e51b8152602060048201526012602482015271496e73756666696369656e742066756e647360701b6044820152606401610622565b6000828152600a60209081526040808320815160608101835281546001600160a01b03908116825260018301548116828601526002909201549091169181019190915290830151909190606490610844906004611d2b565b61084e9190611d42565b9050600060648460200151605f6108659190611d2b565b61086f9190611d42565b905060006064856020015160016108869190611d2b565b6108909190611d42565b84516040519192506001600160a01b03169084156108fc029085906000818181858888f193505050501580156108ca573d6000803e3d6000fd5b5083602001516001600160a01b03166108fc839081150290604051600060405180830381858888f19350505050158015610908573d6000803e3d6000fd5b5083604001516001600160a01b03166108fc829081150290604051600060405180830381858888f19350505050158015610946573d6000803e3d6000fd5b5084516109549033886110d5565b600086815260096020908152604091829020600201805460ff1916905586810151825189815233928101929092528183015290517f6329e40c0365262ebbff5ca819385c2b9713dcaa050ed07866d72c441395699a9181900360600190a1505050505050565b6000818152600260205260408120546001600160a01b0316806104ef5760405162461bcd60e51b8152602060048201526018602482015277115490cdcc8c4e881a5b9d985b1a59081d1bdad95b88125160421b6044820152606401610622565b60006001600160a01b038216610a845760405162461bcd60e51b815260206004820152602960248201527f4552433732313a2061646472657373207a65726f206973206e6f7420612076616044820152683634b21037bbb732b960b91b6064820152608401610622565b506001600160a01b031660009081526003602052604090205490565b610aa8611239565b610ab26000611293565b565b60008111610b045760405162461bcd60e51b815260206004820152601f60248201527f5072696365206d7573742062652067726561746572207468616e207a65726f006044820152606401610622565b33610b0e836109ba565b6001600160a01b031614610b645760405162461bcd60e51b815260206004820152601760248201527f4f6e6c79206f776e65722063616e206c697374204e46540000000000000000006044820152606401610622565b6040805160608082018352338083526020808401868152600185870181815260008a815260098552889020965187546001600160a01b0319166001600160a01b03909116178755915190860155516002909401805460ff1916941515949094179093558351868152928301529181018390527f5f9c03de076f5063cd3ebcfe8ef7aa8af378e4b35a83c77ba9777e97083879a291015b60405180910390a15050565b60606001805461050490611c8e565b610c203383836112e5565b5050565b610c2e3383611077565b610c4a5760405162461bcd60e51b815260040161062290611cc8565b610c56848484846113b3565b50505050565b6000610c66611239565b6000855111610cb75760405162461bcd60e51b815260206004820152601960248201527f546f6b656e205552492063616e6e6f7420626520656d707479000000000000006044820152606401610622565b60088054906000610cc783611d64565b9091555050600854610cd987826113e6565b610ce38187611571565b604080516060810182526001600160a01b03808816825286811660208084019182528783168486019081526000878152600a90925290859020935184549084166001600160a01b03199182161785559151600185018054918516918416919091179055516002909301805493831693909116929092179091559051908816907fd35bb95e09c04b219e35047ce7b7b300e3384264ef84a40456943dbc0fc17c1490610d919084908a90611d7d565b60405180910390a29695505050505050565b6060610dae82610faa565b60008281526006602052604081208054610dc790611c8e565b80601f0160208091040260200160405190810160405280929190818152602001828054610df390611c8e565b8015610e405780601f10610e1557610100808354040283529160200191610e40565b820191906000526020600020905b815481529060010190602001808311610e2357829003601f168201915b505050505090506000610e5e60408051602081019091526000815290565b90508051600003610e70575092915050565b815115610ea2578082604051602001610e8a929190611d96565b60405160208183030381529060405292505050919050565b610eab84611635565b949350505050565b6001600160a01b03918216600090815260056020908152604080832093909416825291909152205460ff1690565b610ee9611239565b6001600160a01b038116610f4e5760405162461bcd60e51b815260206004820152602660248201527f4f776e61626c653a206e6577206f776e657220697320746865207a65726f206160448201526564647265737360d01b6064820152608401610622565b610f5781611293565b50565b60006001600160e01b031982166380ac58cd60e01b1480610f8b57506001600160e01b03198216635b5e139f60e01b145b806104ef57506301ffc9a760e01b6001600160e01b03198316146104ef565b6000818152600260205260409020546001600160a01b0316610f575760405162461bcd60e51b8152602060048201526018602482015277115490cdcc8c4e881a5b9d985b1a59081d1bdad95b88125160421b6044820152606401610622565b600081815260046020526040902080546001600160a01b0319166001600160a01b038416908117909155819061103e826109ba565b6001600160a01b03167f8c5be1e5ebec7d5bd14f71427d1e84f3dd0314c0f7b2291e5b200ac8c7c3b92560405160405180910390a45050565b600080611083836109ba565b9050806001600160a01b0316846001600160a01b031614806110aa57506110aa8185610eb3565b80610eab5750836001600160a01b03166110c384610587565b6001600160a01b031614949350505050565b826001600160a01b03166110e8826109ba565b6001600160a01b03161461110e5760405162461bcd60e51b815260040161062290611dc5565b6001600160a01b0382166111705760405162461bcd60e51b8152602060048201526024808201527f4552433732313a207472616e7366657220746f20746865207a65726f206164646044820152637265737360e01b6064820152608401610622565b826001600160a01b0316611183826109ba565b6001600160a01b0316146111a95760405162461bcd60e51b815260040161062290611dc5565b600081815260046020908152604080832080546001600160a01b03199081169091556001600160a01b0387811680865260038552838620805460001901905590871680865283862080546001019055868652600290945282852080549092168417909155905184937fddf252ad1be2c89b69c2b068fc378daa952ba7f163c4a11628f55a4df523b3ef91a4505050565b6007546001600160a01b03163314610ab25760405162461bcd60e51b815260206004820181905260248201527f4f776e61626c653a2063616c6c6572206973206e6f7420746865206f776e65726044820152606401610622565b600780546001600160a01b038381166001600160a01b0319831681179093556040519116919082907f8be0079c531659141344cd1fd0a4f28419497f9722a3daafe3b4186f6b6457e090600090a35050565b816001600160a01b0316836001600160a01b0316036113465760405162461bcd60e51b815260206004820152601960248201527f4552433732313a20617070726f766520746f2063616c6c6572000000000000006044820152606401610622565b6001600160a01b03838116600081815260056020908152604080832094871680845294825291829020805460ff191686151590811790915591519182527f17307eab39ab6107e8899845ad3d59bd9653f200f220920489ca2b5937696c31910160405180910390a3505050565b6113be8484846110d5565b6113ca848484846116a9565b610c565760405162461bcd60e51b815260040161062290611e0a565b6001600160a01b03821661143c5760405162461bcd60e51b815260206004820181905260248201527f4552433732313a206d696e7420746f20746865207a65726f20616464726573736044820152606401610622565b6000818152600260205260409020546001600160a01b0316156114a15760405162461bcd60e51b815260206004820152601c60248201527f4552433732313a20746f6b656e20616c7265616479206d696e746564000000006044820152606401610622565b6000818152600260205260409020546001600160a01b0316156115065760405162461bcd60e51b815260206004820152601c60248201527f4552433732313a20746f6b656e20616c7265616479206d696e746564000000006044820152606401610622565b6001600160a01b038216600081815260036020908152604080832080546001019055848352600290915280822080546001600160a01b0319168417905551839291907fddf252ad1be2c89b69c2b068fc378daa952ba7f163c4a11628f55a4df523b3ef908290a45050565b6000828152600260205260409020546001600160a01b03166115ec5760405162461bcd60e51b815260206004820152602e60248201527f45524337323155524953746f726167653a2055524920736574206f66206e6f6e60448201526d32bc34b9ba32b73a103a37b5b2b760911b6064820152608401610622565b60008281526006602052604090206116048282611eaa565b506040518281527ff8e1a15aba9398e019f0b49df1a4fde98ee17ae345cb5f6b5e2c27f5033e8ce790602001610bfa565b606061164082610faa565b600061165760408051602081019091526000815290565b9050600081511161167757604051806020016040528060008152506116a2565b80611681846117aa565b604051602001611692929190611d96565b6040516020818303038152906040525b9392505050565b60006001600160a01b0384163b1561179f57604051630a85bd0160e11b81526001600160a01b0385169063150b7a02906116ed903390899088908890600401611f6a565b6020604051808303816000875af1925050508015611728575060408051601f3d908101601f1916820190925261172591810190611fa7565b60015b611785573d808015611756576040519150601f19603f3d011682016040523d82523d6000602084013e61175b565b606091505b50805160000361177d5760405162461bcd60e51b815260040161062290611e0a565b805181602001fd5b6001600160e01b031916630a85bd0160e11b149050610eab565b506001949350505050565b606060006117b78361183d565b600101905060008167ffffffffffffffff8111156117d7576117d7611abf565b6040519080825280601f01601f191660200182016040528015611801576020820181803683370190505b5090508181016020015b600019016f181899199a1a9b1b9c1cb0b131b232b360811b600a86061a8153600a850494508461180b57509392505050565b60008072184f03e93ff9f4daa797ed6e38ed64bf6a1f0160401b831061187c5772184f03e93ff9f4daa797ed6e38ed64bf6a1f0160401b830492506040015b6d04ee2d6d415b85acef810000000083106118a8576d04ee2d6d415b85acef8100000000830492506020015b662386f26fc1000083106118c657662386f26fc10000830492506010015b6305f5e10083106118de576305f5e100830492506008015b61271083106118f257612710830492506004015b60648310611904576064830492506002015b600a83106104ef5760010192915050565b6001600160e01b031981168114610f5757600080fd5b60006020828403121561193d57600080fd5b81356116a281611915565b60005b8381101561196357818101518382015260200161194b565b50506000910152565b60008151808452611984816020860160208601611948565b601f01601f19169290920160200192915050565b6020815260006116a2602083018461196c565b6000602082840312156119bd57600080fd5b5035919050565b80356001600160a01b03811681146119db57600080fd5b919050565b600080604083850312156119f357600080fd5b6119fc836119c4565b946020939093013593505050565b600080600060608486031215611a1f57600080fd5b611a28846119c4565b9250611a36602085016119c4565b9150604084013590509250925092565b600060208284031215611a5857600080fd5b6116a2826119c4565b60008060408385031215611a7457600080fd5b50508035926020909101359150565b60008060408385031215611a9657600080fd5b611a9f836119c4565b915060208301358015158114611ab457600080fd5b809150509250929050565b634e487b7160e01b600052604160045260246000fd5b600067ffffffffffffffff80841115611af057611af0611abf565b604051601f8501601f19908116603f01168101908282118183101715611b1857611b18611abf565b81604052809350858152868686011115611b3157600080fd5b858560208301376000602087830101525050509392505050565b60008060008060808587031215611b6157600080fd5b611b6a856119c4565b9350611b78602086016119c4565b925060408501359150606085013567ffffffffffffffff811115611b9b57600080fd5b8501601f81018713611bac57600080fd5b611bbb87823560208401611ad5565b91505092959194509250565b600080600080600060a08688031215611bdf57600080fd5b611be8866119c4565b9450602086013567ffffffffffffffff811115611c0457600080fd5b8601601f81018813611c1557600080fd5b611c2488823560208401611ad5565b945050611c33604087016119c4565b9250611c41606087016119c4565b9150611c4f608087016119c4565b90509295509295909350565b60008060408385031215611c6e57600080fd5b611c77836119c4565b9150611c85602084016119c4565b90509250929050565b600181811c90821680611ca257607f821691505b602082108103611cc257634e487b7160e01b600052602260045260246000fd5b50919050565b6020808252602d908201527f4552433732313a2063616c6c6572206973206e6f7420746f6b656e206f776e6560408201526c1c881bdc88185c1c1c9bdd9959609a1b606082015260800190565b634e487b7160e01b600052601160045260246000fd5b80820281158282048414176104ef576104ef611d15565b600082611d5f57634e487b7160e01b600052601260045260246000fd5b500490565b600060018201611d7657611d76611d15565b5060010190565b828152604060208201526000610eab604083018461196c565b60008351611da8818460208801611948565b835190830190611dbc818360208801611948565b01949350505050565b60208082526025908201527f4552433732313a207472616e736665722066726f6d20696e636f72726563742060408201526437bbb732b960d91b606082015260800190565b60208082526032908201527f4552433732313a207472616e7366657220746f206e6f6e20455243373231526560408201527131b2b4bb32b91034b6b83632b6b2b73a32b960711b606082015260800190565b601f8211156106c357600081815260208120601f850160051c81016020861015611e835750805b601f850160051c820191505b81811015611ea257828155600101611e8f565b505050505050565b815167ffffffffffffffff811115611ec457611ec4611abf565b611ed881611ed28454611c8e565b84611e5c565b602080601f831160018114611f0d5760008415611ef55750858301515b600019600386901b1c1916600185901b178555611ea2565b600085815260208120601f198616915b82811015611f3c57888601518255948401946001909101908401611f1d565b5085821015611f5a5787850151600019600388901b60f8161c191681555b5050505050600190811b01905550565b6001600160a01b0385811682528416602082015260408101839052608060608201819052600090611f9d9083018461196c565b9695505050505050565b600060208284031215611fb957600080fd5b81516116a28161191556fea2646970667358221220e8a252543ecca67236f2d04a50bc419b83308f50b5e01d7ea155456aea46471164736f6c63430008110033",
  "immutableReferences": {},
  "source": "// SPDX-License-Identifier: MIT\r\npragma solidity ^0.8.17;\r\n\r\nimport \"@openzeppelin/contracts/token/ERC721/extensions/ERC721URIStorage.sol\";\r\nimport \"@openzeppelin/contracts/access/Ownable.sol\";\r\n\r\ncontract NFTMarketplace is ERC721URIStorage, Ownable {\r\n    // NFT   \r\n    uint256 private _tokenIds;\r\n\r\n    //    \r\n    struct Listing {\r\n        address seller;\r\n        uint256 price;\r\n        bool isListed;\r\n    }\r\n    //  ID -> Listing ( )\r\n    mapping(uint256 => Listing) public listings;\r\n\r\n    //     (, ,  )\r\n    struct RoyaltyInfo {\r\n        address originalCreator;\r\n        address registrant;\r\n        address adminWallet;\r\n    }\r\n    //  ID -> RoyaltyInfo (  )\r\n    mapping(uint256 => RoyaltyInfo) public royaltyInfoByToken;\r\n\r\n    //  \r\n    event NFTMinted(address indexed to, uint256 tokenId, string tokenURI);\r\n    event NFTListed(uint256 tokenId, address seller, uint256 price);\r\n    event NFTSold(uint256 tokenId, address buyer, uint256 price);\r\n\r\n    constructor() ERC721(\"Chaintoon\", \"Chaintoon\") {}\r\n\r\n    /**\r\n     * @dev NFT   (  ).\r\n     * @param to  NFT  \r\n     * @param tokenURI NFT  URI\r\n     * @param originalCreator   \r\n     * @param registrant   \r\n     * @param adminWallet   \r\n     * @return newTokenId  NFT tokenId\r\n     */\r\n    function mint(\r\n        address to,\r\n        string memory tokenURI,\r\n        address originalCreator,\r\n        address registrant,\r\n        address adminWallet\r\n    ) public onlyOwner returns (uint256) {\r\n        require(bytes(tokenURI).length > 0, \"Token URI cannot be empty\");\r\n\r\n        _tokenIds++;\r\n        uint256 newTokenId = _tokenIds;\r\n\r\n        // 1)  NFT \r\n        _mint(to, newTokenId);\r\n        _setTokenURI(newTokenId, tokenURI);\r\n\r\n        // 2)   on-chain \r\n        royaltyInfoByToken[newTokenId] = RoyaltyInfo({\r\n            originalCreator: originalCreator,\r\n            registrant: registrant,\r\n            adminWallet: adminWallet\r\n        });\r\n\r\n        emit NFTMinted(to, newTokenId, tokenURI);\r\n        return newTokenId;\r\n    }\r\n\r\n    /**\r\n     * @dev NFT    .\r\n     * @param tokenId   ID\r\n     * @param price   (Wei )\r\n     */\r\n    function listNFT(uint256 tokenId, uint256 price) public {\r\n        require(price > 0, \"Price must be greater than zero\");\r\n        // NFT     \r\n        require(ownerOf(tokenId) == msg.sender, \"Only owner can list NFT\");\r\n\r\n        listings[tokenId] = Listing(msg.sender, price, true);\r\n\r\n        emit NFTListed(tokenId, msg.sender, price);\r\n    }\r\n\r\n    /**\r\n     * @dev      .\r\n     * @param tokenId   ID\r\n     * @return bool  \r\n     */\r\n    function isListed(uint256 tokenId) public view returns (bool) {\r\n        return listings[tokenId].isListed;\r\n    }\r\n\r\n    /**\r\n     * @dev NFT   (   ).\r\n     * @param tokenId   ID\r\n     */\r\n    function buyNFT(uint256 tokenId) public payable {\r\n        Listing memory listing = listings[tokenId];\r\n        require(listing.isListed, \"NFT is not listed for sale\");\r\n        require(msg.value >= listing.price, \"Insufficient funds\");\r\n\r\n        // (1)  NFT   \r\n        RoyaltyInfo memory info = royaltyInfoByToken[tokenId];\r\n\r\n        // (2) : 4% / 95% / 1%  \r\n        uint256 originalCreatorShare = (listing.price * 4) / 100;\r\n        uint256 registrantShare = (listing.price * 95) / 100;\r\n        uint256 adminShare = (listing.price * 1) / 100;\r\n\r\n        // (3)  \r\n        payable(info.originalCreator).transfer(originalCreatorShare);\r\n        payable(info.registrant).transfer(registrantShare);\r\n        payable(info.adminWallet).transfer(adminShare);\r\n\r\n        // (4) NFT  \r\n        _transfer(listing.seller, msg.sender, tokenId);\r\n        listings[tokenId].isListed = false;\r\n\r\n        // (5)  \r\n        emit NFTSold(tokenId, msg.sender, listing.price);\r\n    }\r\n}\r\n",
  "sourcePath": "C:\\ssafy\\S12P21C109\\contracts\\contracts\\NFTMarketplace.sol",
  "compiler": {
    "name": "solc",
    "version": "0.8.17+commit.8df45f5f.Emscripten.clang"
  },
  "schemaVersion": "3.4.16",
  "updatedAt": "2025-03-23T17:11:58.651Z",
  "networkType": "ethereum",
  "devdoc": {
    "kind": "dev",
    "methods": {
      "approve(address,uint256)": {
        "details": "See {IERC721-approve}."
      },
      "balanceOf(address)": {
        "details": "See {IERC721-balanceOf}."
      },
      "buyNFT(uint256)": {
        "details": "NFT   (   ).",
        "params": {
          "tokenId": "  ID"
        }
      },
      "getApproved(uint256)": {
        "details": "See {IERC721-getApproved}."
      },
      "isApprovedForAll(address,address)": {
        "details": "See {IERC721-isApprovedForAll}."
      },
      "isListed(uint256)": {
        "details": "     .",
        "params": {
          "tokenId": "  ID"
        },
        "returns": {
          "_0": "bool  "
        }
      },
      "listNFT(uint256,uint256)": {
        "details": "NFT    .",
        "params": {
          "price": "  (Wei )",
          "tokenId": "  ID"
        }
      },
      "mint(address,string,address,address,address)": {
        "details": "NFT   (  ).",
        "params": {
          "adminWallet": "  ",
          "originalCreator": "  ",
          "registrant": "  ",
          "to": " NFT  ",
          "tokenURI": "NFT  URI"
        },
        "returns": {
          "_0": "newTokenId  NFT tokenId"
        }
      },
      "name()": {
        "details": "See {IERC721Metadata-name}."
      },
      "owner()": {
        "details": "Returns the address of the current owner."
      },
      "ownerOf(uint256)": {
        "details": "See {IERC721-ownerOf}."
      },
      "renounceOwnership()": {
        "details": "Leaves the contract without owner. It will not be possible to call `onlyOwner` functions. Can only be called by the current owner. NOTE: Renouncing ownership will leave the contract without an owner, thereby disabling any functionality that is only available to the owner."
      },
      "safeTransferFrom(address,address,uint256)": {
        "details": "See {IERC721-safeTransferFrom}."
      },
      "safeTransferFrom(address,address,uint256,bytes)": {
        "details": "See {IERC721-safeTransferFrom}."
      },
      "setApprovalForAll(address,bool)": {
        "details": "See {IERC721-setApprovalForAll}."
      },
      "supportsInterface(bytes4)": {
        "details": "See {IERC165-supportsInterface}"
      },
      "symbol()": {
        "details": "See {IERC721Metadata-symbol}."
      },
      "tokenURI(uint256)": {
        "details": "See {IERC721Metadata-tokenURI}."
      },
      "transferFrom(address,address,uint256)": {
        "details": "See {IERC721-transferFrom}."
      },
      "transferOwnership(address)": {
        "details": "Transfers ownership of the contract to a new account (`newOwner`). Can only be called by the current owner."
      }
    },
    "version": 1
  },
  "userdoc": {
    "kind": "user",
    "methods": {},
    "version": 1
  }
}