{
  "contractName": "SuperNFTMarketplace",
  "abi": [
    {
      "inputs": [],
      "stateMutability": "nonpayable",
      "type": "constructor"
    },
    {
      "anonymous": false,
      "inputs": [
        {
          "indexed": true,
          "internalType": "address",
          "name": "owner",
          "type": "address"
        },
        {
          "indexed": true,
          "internalType": "address",
          "name": "approved",
          "type": "address"
        },
        {
          "indexed": true,
          "internalType": "uint256",
          "name": "tokenId",
          "type": "uint256"
        }
      ],
      "name": "Approval",
      "type": "event"
    },
    {
      "anonymous": false,
      "inputs": [
        {
          "indexed": true,
          "internalType": "address",
          "name": "owner",
          "type": "address"
        },
        {
          "indexed": true,
          "internalType": "address",
          "name": "operator",
          "type": "address"
        },
        {
          "indexed": false,
          "internalType": "bool",
          "name": "approved",
          "type": "bool"
        }
      ],
      "name": "ApprovalForAll",
      "type": "event"
    },
    {
      "anonymous": false,
      "inputs": [
        {
          "indexed": true,
          "internalType": "uint256",
          "name": "tokenId",
          "type": "uint256"
        },
        {
          "indexed": true,
          "internalType": "address",
          "name": "seller",
          "type": "address"
        },
        {
          "indexed": false,
          "internalType": "uint256",
          "name": "price",
          "type": "uint256"
        }
      ],
      "name": "NFTListed",
      "type": "event"
    },
    {
      "anonymous": false,
      "inputs": [
        {
          "indexed": true,
          "internalType": "uint256",
          "name": "tokenId",
          "type": "uint256"
        },
        {
          "indexed": true,
          "internalType": "address",
          "name": "owner",
          "type": "address"
        },
        {
          "indexed": false,
          "internalType": "string",
          "name": "tokenURI",
          "type": "string"
        }
      ],
      "name": "NFTRegistered",
      "type": "event"
    },
    {
      "anonymous": false,
      "inputs": [
        {
          "indexed": true,
          "internalType": "uint256",
          "name": "tokenId",
          "type": "uint256"
        },
        {
          "indexed": true,
          "internalType": "address",
          "name": "buyer",
          "type": "address"
        },
        {
          "indexed": false,
          "internalType": "uint256",
          "name": "price",
          "type": "uint256"
        }
      ],
      "name": "NFTSold",
      "type": "event"
    },
    {
      "anonymous": false,
      "inputs": [
        {
          "indexed": true,
          "internalType": "address",
          "name": "previousOwner",
          "type": "address"
        },
        {
          "indexed": true,
          "internalType": "address",
          "name": "newOwner",
          "type": "address"
        }
      ],
      "name": "OwnershipTransferred",
      "type": "event"
    },
    {
      "anonymous": false,
      "inputs": [
        {
          "indexed": true,
          "internalType": "address",
          "name": "from",
          "type": "address"
        },
        {
          "indexed": true,
          "internalType": "address",
          "name": "to",
          "type": "address"
        },
        {
          "indexed": true,
          "internalType": "uint256",
          "name": "tokenId",
          "type": "uint256"
        }
      ],
      "name": "Transfer",
      "type": "event"
    },
    {
      "inputs": [
        {
          "internalType": "address",
          "name": "to",
          "type": "address"
        },
        {
          "internalType": "uint256",
          "name": "tokenId",
          "type": "uint256"
        }
      ],
      "name": "approve",
      "outputs": [],
      "stateMutability": "nonpayable",
      "type": "function"
    },
    {
      "inputs": [
        {
          "internalType": "address",
          "name": "owner",
          "type": "address"
        }
      ],
      "name": "balanceOf",
      "outputs": [
        {
          "internalType": "uint256",
          "name": "",
          "type": "uint256"
        }
      ],
      "stateMutability": "view",
      "type": "function",
      "constant": true
    },
    {
      "inputs": [
        {
          "internalType": "uint256",
          "name": "tokenId",
          "type": "uint256"
        }
      ],
      "name": "getApproved",
      "outputs": [
        {
          "internalType": "address",
          "name": "",
          "type": "address"
        }
      ],
      "stateMutability": "view",
      "type": "function",
      "constant": true
    },
    {
      "inputs": [
        {
          "internalType": "address",
          "name": "owner",
          "type": "address"
        },
        {
          "internalType": "address",
          "name": "operator",
          "type": "address"
        }
      ],
      "name": "isApprovedForAll",
      "outputs": [
        {
          "internalType": "bool",
          "name": "",
          "type": "bool"
        }
      ],
      "stateMutability": "view",
      "type": "function",
      "constant": true
    },
    {
      "inputs": [
        {
          "internalType": "uint256",
          "name": "",
          "type": "uint256"
        }
      ],
      "name": "listings",
      "outputs": [
        {
          "internalType": "address",
          "name": "seller",
          "type": "address"
        },
        {
          "internalType": "uint256",
          "name": "price",
          "type": "uint256"
        },
        {
          "internalType": "bool",
          "name": "active",
          "type": "bool"
        }
      ],
      "stateMutability": "view",
      "type": "function",
      "constant": true
    },
    {
      "inputs": [],
      "name": "name",
      "outputs": [
        {
          "internalType": "string",
          "name": "",
          "type": "string"
        }
      ],
      "stateMutability": "view",
      "type": "function",
      "constant": true
    },
    {
      "inputs": [],
      "name": "owner",
      "outputs": [
        {
          "internalType": "address",
          "name": "",
          "type": "address"
        }
      ],
      "stateMutability": "view",
      "type": "function",
      "constant": true
    },
    {
      "inputs": [
        {
          "internalType": "uint256",
          "name": "tokenId",
          "type": "uint256"
        }
      ],
      "name": "ownerOf",
      "outputs": [
        {
          "internalType": "address",
          "name": "",
          "type": "address"
        }
      ],
      "stateMutability": "view",
      "type": "function",
      "constant": true
    },
    {
      "inputs": [],
      "name": "renounceOwnership",
      "outputs": [],
      "stateMutability": "nonpayable",
      "type": "function"
    },
    {
      "inputs": [
        {
          "internalType": "address",
          "name": "from",
          "type": "address"
        },
        {
          "internalType": "address",
          "name": "to",
          "type": "address"
        },
        {
          "internalType": "uint256",
          "name": "tokenId",
          "type": "uint256"
        }
      ],
      "name": "safeTransferFrom",
      "outputs": [],
      "stateMutability": "nonpayable",
      "type": "function"
    },
    {
      "inputs": [
        {
          "internalType": "address",
          "name": "from",
          "type": "address"
        },
        {
          "internalType": "address",
          "name": "to",
          "type": "address"
        },
        {
          "internalType": "uint256",
          "name": "tokenId",
          "type": "uint256"
        },
        {
          "internalType": "bytes",
          "name": "data",
          "type": "bytes"
        }
      ],
      "name": "safeTransferFrom",
      "outputs": [],
      "stateMutability": "nonpayable",
      "type": "function"
    },
    {
      "inputs": [
        {
          "internalType": "address",
          "name": "operator",
          "type": "address"
        },
        {
          "internalType": "bool",
          "name": "approved",
          "type": "bool"
        }
      ],
      "name": "setApprovalForAll",
      "outputs": [],
      "stateMutability": "nonpayable",
      "type": "function"
    },
    {
      "inputs": [
        {
          "internalType": "bytes4",
          "name": "interfaceId",
          "type": "bytes4"
        }
      ],
      "name": "supportsInterface",
      "outputs": [
        {
          "internalType": "bool",
          "name": "",
          "type": "bool"
        }
      ],
      "stateMutability": "view",
      "type": "function",
      "constant": true
    },
    {
      "inputs": [],
      "name": "symbol",
      "outputs": [
        {
          "internalType": "string",
          "name": "",
          "type": "string"
        }
      ],
      "stateMutability": "view",
      "type": "function",
      "constant": true
    },
    {
      "inputs": [
        {
          "internalType": "uint256",
          "name": "index",
          "type": "uint256"
        }
      ],
      "name": "tokenByIndex",
      "outputs": [
        {
          "internalType": "uint256",
          "name": "",
          "type": "uint256"
        }
      ],
      "stateMutability": "view",
      "type": "function",
      "constant": true
    },
    {
      "inputs": [
        {
          "internalType": "address",
          "name": "owner",
          "type": "address"
        },
        {
          "internalType": "uint256",
          "name": "index",
          "type": "uint256"
        }
      ],
      "name": "tokenOfOwnerByIndex",
      "outputs": [
        {
          "internalType": "uint256",
          "name": "",
          "type": "uint256"
        }
      ],
      "stateMutability": "view",
      "type": "function",
      "constant": true
    },
    {
      "inputs": [],
      "name": "totalSupply",
      "outputs": [
        {
          "internalType": "uint256",
          "name": "",
          "type": "uint256"
        }
      ],
      "stateMutability": "view",
      "type": "function",
      "constant": true
    },
    {
      "inputs": [
        {
          "internalType": "address",
          "name": "from",
          "type": "address"
        },
        {
          "internalType": "address",
          "name": "to",
          "type": "address"
        },
        {
          "internalType": "uint256",
          "name": "tokenId",
          "type": "uint256"
        }
      ],
      "name": "transferFrom",
      "outputs": [],
      "stateMutability": "nonpayable",
      "type": "function"
    },
    {
      "inputs": [
        {
          "internalType": "address",
          "name": "newOwner",
          "type": "address"
        }
      ],
      "name": "transferOwnership",
      "outputs": [],
      "stateMutability": "nonpayable",
      "type": "function"
    },
    {
      "inputs": [
        {
          "internalType": "address",
          "name": "to",
          "type": "address"
        },
        {
          "internalType": "string",
          "name": "uri",
          "type": "string"
        }
      ],
      "name": "registerNFT",
      "outputs": [
        {
          "internalType": "uint256",
          "name": "",
          "type": "uint256"
        }
      ],
      "stateMutability": "nonpayable",
      "type": "function"
    },
    {
      "inputs": [
        {
          "internalType": "uint256",
          "name": "tokenId",
          "type": "uint256"
        },
        {
          "internalType": "uint256",
          "name": "price",
          "type": "uint256"
        }
      ],
      "name": "listNFT",
      "outputs": [],
      "stateMutability": "nonpayable",
      "type": "function"
    },
    {
      "inputs": [
        {
          "internalType": "uint256",
          "name": "tokenId",
          "type": "uint256"
        }
      ],
      "name": "buyNFT",
      "outputs": [],
      "stateMutability": "payable",
      "type": "function",
      "payable": true
    },
    {
      "inputs": [
        {
          "internalType": "address",
          "name": "user",
          "type": "address"
        }
      ],
      "name": "getBalance",
      "outputs": [
        {
          "internalType": "uint256",
          "name": "",
          "type": "uint256"
        }
      ],
      "stateMutability": "view",
      "type": "function",
      "constant": true
    },
    {
      "inputs": [
        {
          "internalType": "uint256",
          "name": "tokenId",
          "type": "uint256"
        }
      ],
      "name": "tokenURI",
      "outputs": [
        {
          "internalType": "string",
          "name": "",
          "type": "string"
        }
      ],
      "stateMutability": "view",
      "type": "function",
      "constant": true
    }
  ],
  "bytecode": "0x60806040526001600b553480156200001657600080fd5b506040518060400160405280601381526020017f535341465920535550455220415050204e4654000000000000000000000000008152506040518060400160405280600481526020016329a9a0a760e11b81525081600090816200007b9190620001a8565b5060016200008a8282620001a8565b505050620000a7620000a1620000ad60201b60201c565b620000b1565b62000274565b3390565b600a80546001600160a01b038381166001600160a01b0319831681179093556040519116919082907f8be0079c531659141344cd1fd0a4f28419497f9722a3daafe3b4186f6b6457e090600090a35050565b634e487b7160e01b600052604160045260246000fd5b600181811c908216806200012e57607f821691505b6020821081036200014f57634e487b7160e01b600052602260045260246000fd5b50919050565b601f821115620001a357600081815260208120601f850160051c810160208610156200017e5750805b601f850160051c820191505b818110156200019f578281556001016200018a565b5050505b505050565b81516001600160401b03811115620001c457620001c462000103565b620001dc81620001d5845462000119565b8462000155565b602080601f831160018114620002145760008415620001fb5750858301515b600019600386901b1c1916600185901b1785556200019f565b600085815260208120601f198616915b82811015620002455788860151825594840194600190910190840162000224565b5085821015620002645787850151600019600388901b60f8161c191681555b5050505050600190811b01905550565b611e7a80620002846000396000f3fe60806040526004361061014b5760003560e01c8063715018a6116100b6578063c87b56dd1161006f578063c87b56dd1461039b578063d98e71cc146103bb578063de74e57b146103db578063e985e9c51461044b578063f2fde38b14610494578063f8b2cb4f146104b457600080fd5b8063715018a6146102f35780638da5cb5b1461030857806394383f141461032657806395d89b4114610346578063a22cb4651461035b578063b88d4fde1461037b57600080fd5b80632f745c59116101085780632f745c591461024057806342842e0e146102605780634f6ccce71461028057806351ed8288146102a05780636352211e146102b357806370a08231146102d357600080fd5b806301ffc9a71461015057806306fdde0314610185578063081812fc146101a7578063095ea7b3146101df57806318160ddd1461020157806323b872dd14610220575b600080fd5b34801561015c57600080fd5b5061017061016b3660046117e8565b6104dc565b60405190151581526020015b60405180910390f35b34801561019157600080fd5b5061019a610507565b60405161017c9190611852565b3480156101b357600080fd5b506101c76101c2366004611865565b610599565b6040516001600160a01b03909116815260200161017c565b3480156101eb57600080fd5b506101ff6101fa36600461189a565b6105c0565b005b34801561020d57600080fd5b506008545b60405190815260200161017c565b34801561022c57600080fd5b506101ff61023b3660046118c4565b6106da565b34801561024c57600080fd5b5061021261025b36600461189a565b61070b565b34801561026c57600080fd5b506101ff61027b3660046118c4565b6107a1565b34801561028c57600080fd5b5061021261029b366004611865565b6107bc565b6101ff6102ae366004611865565b61084f565b3480156102bf57600080fd5b506101c76102ce366004611865565b610970565b3480156102df57600080fd5b506102126102ee366004611900565b6109d0565b3480156102ff57600080fd5b506101ff610a56565b34801561031457600080fd5b50600a546001600160a01b03166101c7565b34801561033257600080fd5b506101ff61034136600461191b565b610a6a565b34801561035257600080fd5b5061019a610b89565b34801561036757600080fd5b506101ff61037636600461193d565b610b98565b34801561038757600080fd5b506101ff61039636600461198f565b610ba7565b3480156103a757600080fd5b5061019a6103b6366004611865565b610bdf565b3480156103c757600080fd5b506102126103d6366004611a6b565b610c81565b3480156103e757600080fd5b506104246103f6366004611865565b600c602052600090815260409020805460018201546002909201546001600160a01b03909116919060ff1683565b604080516001600160a01b039094168452602084019290925215159082015260600161017c565b34801561045757600080fd5b50610170610466366004611aee565b6001600160a01b03918216600090815260056020908152604080832093909416825291909152205460ff1690565b3480156104a057600080fd5b506101ff6104af366004611900565b610d31565b3480156104c057600080fd5b506102126104cf366004611900565b6001600160a01b03163190565b60006001600160e01b0319821663780e9d6360e01b1480610501575061050182610daa565b92915050565b60606000805461051690611b21565b80601f016020809104026020016040519081016040528092919081815260200182805461054290611b21565b801561058f5780601f106105645761010080835404028352916020019161058f565b820191906000526020600020905b81548152906001019060200180831161057257829003601f168201915b5050505050905090565b60006105a482610dfa565b506000908152600460205260409020546001600160a01b031690565b60006105cb82610970565b9050806001600160a01b0316836001600160a01b03160361063d5760405162461bcd60e51b815260206004820152602160248201527f4552433732313a20617070726f76616c20746f2063757272656e74206f776e656044820152603960f91b60648201526084015b60405180910390fd5b336001600160a01b038216148061065957506106598133610466565b6106cb5760405162461bcd60e51b815260206004820152603d60248201527f4552433732313a20617070726f76652063616c6c6572206973206e6f7420746f60448201527f6b656e206f776e6572206f7220617070726f76656420666f7220616c6c0000006064820152608401610634565b6106d58383610e59565b505050565b6106e43382610ec7565b6107005760405162461bcd60e51b815260040161063490611b5b565b6106d5838383610f46565b6000610716836109d0565b82106107785760405162461bcd60e51b815260206004820152602b60248201527f455243373231456e756d657261626c653a206f776e657220696e646578206f7560448201526a74206f6620626f756e647360a81b6064820152608401610634565b506001600160a01b03919091166000908152600660209081526040808320938352929052205490565b6106d583838360405180602001604052806000815250610ba7565b60006107c760085490565b821061082a5760405162461bcd60e51b815260206004820152602c60248201527f455243373231456e756d657261626c653a20676c6f62616c20696e646578206f60448201526b7574206f6620626f756e647360a01b6064820152608401610634565b6008828154811061083d5761083d611ba8565b90600052602060002001549050919050565b6000818152600c60205260409020600281015460ff1661089e5760405162461bcd60e51b815260206004820152600a602482015269139bdd081b1a5cdd195960b21b6044820152606401610634565b80600101543410156108e15760405162461bcd60e51b815260206004820152600c60248201526b125b9cdd59999a58da595b9d60a21b6044820152606401610634565b80546040516001600160a01b039091169081903480156108fc02916000818181858888f1935050505015801561091b573d6000803e3d6000fd5b50610927813385610f46565b60028201805460ff19169055604051348152339084907f6329e40c0365262ebbff5ca819385c2b9713dcaa050ed07866d72c441395699a906020015b60405180910390a3505050565b6000818152600260205260408120546001600160a01b0316806105015760405162461bcd60e51b8152602060048201526018602482015277115490cdcc8c4e881a5b9d985b1a59081d1bdad95b88125160421b6044820152606401610634565b60006001600160a01b038216610a3a5760405162461bcd60e51b815260206004820152602960248201527f4552433732313a2061646472657373207a65726f206973206e6f7420612076616044820152683634b21037bbb732b960b91b6064820152608401610634565b506001600160a01b031660009081526003602052604090205490565b610a5e6110b7565b610a686000611111565b565b33610a7483610970565b6001600160a01b031614610ab75760405162461bcd60e51b815260206004820152600a60248201526927b7363c9037bbb732b960b11b6044820152606401610634565b60008111610af15760405162461bcd60e51b8152602060048201526007602482015266050726963653e360cc1b6044820152606401610634565b6040805160608101825233808252602080830185815260018486018181526000898152600c8552879020955186546001600160a01b0319166001600160a01b03909116178655915190850155516002909301805460ff191693151593909317909255915183815284917f5f9c03de076f5063cd3ebcfe8ef7aa8af378e4b35a83c77ba9777e97083879a2910160405180910390a35050565b60606001805461051690611b21565b610ba3338383611163565b5050565b610bb13383610ec7565b610bcd5760405162461bcd60e51b815260040161063490611b5b565b610bd984848484611229565b50505050565b6000818152600d60205260409020805460609190610bfc90611b21565b80601f0160208091040260200160405190810160405280929190818152602001828054610c2890611b21565b8015610c755780601f10610c4a57610100808354040283529160200191610c75565b820191906000526020600020905b815481529060010190602001808311610c5857829003601f168201915b50505050509050919050565b600b805460009182919082610c9583611bd4565b919050559050610ca5858261125c565b610ce58185858080601f0160208091040260200160405190810160405280939291908181526020018383808284376000920191909152506113f592505050565b846001600160a01b0316817fe673003074323b257cdbe84547284351ba2752025f23a7e78ae97c95a8b42d058686604051610d21929190611bed565b60405180910390a3949350505050565b610d396110b7565b6001600160a01b038116610d9e5760405162461bcd60e51b815260206004820152602660248201527f4f776e61626c653a206e6577206f776e657220697320746865207a65726f206160448201526564647265737360d01b6064820152608401610634565b610da781611111565b50565b60006001600160e01b031982166380ac58cd60e01b1480610ddb57506001600160e01b03198216635b5e139f60e01b145b8061050157506301ffc9a760e01b6001600160e01b0319831614610501565b6000818152600260205260409020546001600160a01b0316610da75760405162461bcd60e51b8152602060048201526018602482015277115490cdcc8c4e881a5b9d985b1a59081d1bdad95b88125160421b6044820152606401610634565b600081815260046020526040902080546001600160a01b0319166001600160a01b0384169081179091558190610e8e82610970565b6001600160a01b03167f8c5be1e5ebec7d5bd14f71427d1e84f3dd0314c0f7b2291e5b200ac8c7c3b92560405160405180910390a45050565b600080610ed383610970565b9050806001600160a01b0316846001600160a01b03161480610f1a57506001600160a01b0380821660009081526005602090815260408083209388168352929052205460ff165b80610f3e5750836001600160a01b0316610f3384610599565b6001600160a01b0316145b949350505050565b826001600160a01b0316610f5982610970565b6001600160a01b031614610f7f5760405162461bcd60e51b815260040161063490611c1c565b6001600160a01b038216610fe15760405162461bcd60e51b8152602060048201526024808201527f4552433732313a207472616e7366657220746f20746865207a65726f206164646044820152637265737360e01b6064820152608401610634565b610fee838383600161140d565b826001600160a01b031661100182610970565b6001600160a01b0316146110275760405162461bcd60e51b815260040161063490611c1c565b600081815260046020908152604080832080546001600160a01b03199081169091556001600160a01b0387811680865260038552838620805460001901905590871680865283862080546001019055868652600290945282852080549092168417909155905184937fddf252ad1be2c89b69c2b068fc378daa952ba7f163c4a11628f55a4df523b3ef91a4505050565b600a546001600160a01b03163314610a685760405162461bcd60e51b815260206004820181905260248201527f4f776e61626c653a2063616c6c6572206973206e6f7420746865206f776e65726044820152606401610634565b600a80546001600160a01b038381166001600160a01b0319831681179093556040519116919082907f8be0079c531659141344cd1fd0a4f28419497f9722a3daafe3b4186f6b6457e090600090a35050565b816001600160a01b0316836001600160a01b0316036111c45760405162461bcd60e51b815260206004820152601960248201527f4552433732313a20617070726f766520746f2063616c6c6572000000000000006044820152606401610634565b6001600160a01b03838116600081815260056020908152604080832094871680845294825291829020805460ff191686151590811790915591519182527f17307eab39ab6107e8899845ad3d59bd9653f200f220920489ca2b5937696c319101610963565b611234848484610f46565b61124084848484611541565b610bd95760405162461bcd60e51b815260040161063490611c61565b6001600160a01b0382166112b25760405162461bcd60e51b815260206004820181905260248201527f4552433732313a206d696e7420746f20746865207a65726f20616464726573736044820152606401610634565b6000818152600260205260409020546001600160a01b0316156113175760405162461bcd60e51b815260206004820152601c60248201527f4552433732313a20746f6b656e20616c7265616479206d696e746564000000006044820152606401610634565b61132560008383600161140d565b6000818152600260205260409020546001600160a01b03161561138a5760405162461bcd60e51b815260206004820152601c60248201527f4552433732313a20746f6b656e20616c7265616479206d696e746564000000006044820152606401610634565b6001600160a01b038216600081815260036020908152604080832080546001019055848352600290915280822080546001600160a01b0319168417905551839291907fddf252ad1be2c89b69c2b068fc378daa952ba7f163c4a11628f55a4df523b3ef908290a45050565b6000828152600d602052604090206106d58282611d01565b600181111561147c5760405162461bcd60e51b815260206004820152603560248201527f455243373231456e756d657261626c653a20636f6e7365637574697665207472604482015274185b9cd9995c9cc81b9bdd081cdd5c1c1bdc9d1959605a1b6064820152608401610634565b816001600160a01b0385166114d8576114d381600880546000838152600960205260408120829055600182018355919091527ff3f7a9fe364faab93b216da50a3214154f22a0a2b415b23a84c8169e8b636ee30155565b6114fb565b836001600160a01b0316856001600160a01b0316146114fb576114fb8582611642565b6001600160a01b03841661151757611512816116df565b61153a565b846001600160a01b0316846001600160a01b03161461153a5761153a848261178e565b5050505050565b60006001600160a01b0384163b1561163757604051630a85bd0160e11b81526001600160a01b0385169063150b7a0290611585903390899088908890600401611dc1565b6020604051808303816000875af19250505080156115c0575060408051601f3d908101601f191682019092526115bd91810190611dfe565b60015b61161d573d8080156115ee576040519150601f19603f3d011682016040523d82523d6000602084013e6115f3565b606091505b5080516000036116155760405162461bcd60e51b815260040161063490611c61565b805181602001fd5b6001600160e01b031916630a85bd0160e11b149050610f3e565b506001949350505050565b6000600161164f846109d0565b6116599190611e1b565b6000838152600760205260409020549091508082146116ac576001600160a01b03841660009081526006602090815260408083208584528252808320548484528184208190558352600790915290208190555b5060009182526007602090815260408084208490556001600160a01b039094168352600681528383209183525290812055565b6008546000906116f190600190611e1b565b6000838152600960205260408120546008805493945090928490811061171957611719611ba8565b90600052602060002001549050806008838154811061173a5761173a611ba8565b600091825260208083209091019290925582815260099091526040808220849055858252812055600880548061177257611772611e2e565b6001900381819060005260206000200160009055905550505050565b6000611799836109d0565b6001600160a01b039093166000908152600660209081526040808320868452825280832085905593825260079052919091209190915550565b6001600160e01b031981168114610da757600080fd5b6000602082840312156117fa57600080fd5b8135611805816117d2565b9392505050565b6000815180845260005b8181101561183257602081850181015186830182015201611816565b506000602082860101526020601f19601f83011685010191505092915050565b602081526000611805602083018461180c565b60006020828403121561187757600080fd5b5035919050565b80356001600160a01b038116811461189557600080fd5b919050565b600080604083850312156118ad57600080fd5b6118b68361187e565b946020939093013593505050565b6000806000606084860312156118d957600080fd5b6118e28461187e565b92506118f06020850161187e565b9150604084013590509250925092565b60006020828403121561191257600080fd5b6118058261187e565b6000806040838503121561192e57600080fd5b50508035926020909101359150565b6000806040838503121561195057600080fd5b6119598361187e565b91506020830135801515811461196e57600080fd5b809150509250929050565b634e487b7160e01b600052604160045260246000fd5b600080600080608085870312156119a557600080fd5b6119ae8561187e565b93506119bc6020860161187e565b925060408501359150606085013567ffffffffffffffff808211156119e057600080fd5b818701915087601f8301126119f457600080fd5b813581811115611a0657611a06611979565b604051601f8201601f19908116603f01168101908382118183101715611a2e57611a2e611979565b816040528281528a6020848701011115611a4757600080fd5b82602086016020830137600060208483010152809550505050505092959194509250565b600080600060408486031215611a8057600080fd5b611a898461187e565b9250602084013567ffffffffffffffff80821115611aa657600080fd5b818601915086601f830112611aba57600080fd5b813581811115611ac957600080fd5b876020828501011115611adb57600080fd5b6020830194508093505050509250925092565b60008060408385031215611b0157600080fd5b611b0a8361187e565b9150611b186020840161187e565b90509250929050565b600181811c90821680611b3557607f821691505b602082108103611b5557634e487b7160e01b600052602260045260246000fd5b50919050565b6020808252602d908201527f4552433732313a2063616c6c6572206973206e6f7420746f6b656e206f776e6560408201526c1c881bdc88185c1c1c9bdd9959609a1b606082015260800190565b634e487b7160e01b600052603260045260246000fd5b634e487b7160e01b600052601160045260246000fd5b600060018201611be657611be6611bbe565b5060010190565b60208152816020820152818360408301376000818301604090810191909152601f909201601f19160101919050565b60208082526025908201527f4552433732313a207472616e736665722066726f6d20696e636f72726563742060408201526437bbb732b960d91b606082015260800190565b60208082526032908201527f4552433732313a207472616e7366657220746f206e6f6e20455243373231526560408201527131b2b4bb32b91034b6b83632b6b2b73a32b960711b606082015260800190565b601f8211156106d557600081815260208120601f850160051c81016020861015611cda5750805b601f850160051c820191505b81811015611cf957828155600101611ce6565b505050505050565b815167ffffffffffffffff811115611d1b57611d1b611979565b611d2f81611d298454611b21565b84611cb3565b602080601f831160018114611d645760008415611d4c5750858301515b600019600386901b1c1916600185901b178555611cf9565b600085815260208120601f198616915b82811015611d9357888601518255948401946001909101908401611d74565b5085821015611db15787850151600019600388901b60f8161c191681555b5050505050600190811b01905550565b6001600160a01b0385811682528416602082015260408101839052608060608201819052600090611df49083018461180c565b9695505050505050565b600060208284031215611e1057600080fd5b8151611805816117d2565b8181038181111561050157610501611bbe565b634e487b7160e01b600052603160045260246000fdfea2646970667358221220fe0bc26e91dc1dc8cc7b61d3373b4edd75841499613e25b02ba733353f65383064736f6c63430008110033",
  "immutableReferences": {},
  "source": "// SPDX-License-Identifier: MIT\r\npragma solidity ^0.8.17;\r\n\r\nimport \"@openzeppelin/contracts/token/ERC721/extensions/ERC721Enumerable.sol\";\r\nimport \"@openzeppelin/contracts/access/Ownable.sol\";\r\n\r\ncontract SuperNFTMarketplace is ERC721Enumerable, Ownable {\r\n    uint256 private _nextTokenId = 1;\r\n\r\n    struct Listing {\r\n        address seller;\r\n        uint256 price;\r\n        bool    active;\r\n    }\r\n\r\n    mapping(uint256 => Listing) public listings;\r\n\r\n    event NFTRegistered(uint256 indexed tokenId, address indexed owner, string tokenURI);\r\n    event NFTListed(uint256 indexed tokenId, address indexed seller, uint256 price);\r\n    event NFTSold(uint256 indexed tokenId, address indexed buyer, uint256 price);\r\n\r\n    constructor() ERC721(\"SSAFY SUPER APP NFT\", \"SSAN\") {}\r\n\r\n    // 1) NFT  ()\r\n    function registerNFT(address to, string calldata uri) external returns (uint256) {\r\n        uint256 tokenId = _nextTokenId++;\r\n        _mint(to, tokenId);\r\n        _setTokenURI(tokenId, uri);\r\n        emit NFTRegistered(tokenId, to, uri);\r\n        return tokenId;\r\n    }\r\n\r\n    // 2) NFT  \r\n    function listNFT(uint256 tokenId, uint256 price) external {\r\n        require(ownerOf(tokenId) == msg.sender, \"Only owner\");\r\n        require(price > 0, \"Price>0\");\r\n        listings[tokenId] = Listing(msg.sender, price, true);\r\n        emit NFTListed(tokenId, msg.sender, price);\r\n    }\r\n\r\n    // 3) NFT \r\n    function buyNFT(uint256 tokenId) external payable {\r\n        Listing storage l = listings[tokenId];\r\n        require(l.active, \"Not listed\");\r\n        require(msg.value >= l.price, \"Insufficient\");\r\n        address seller = l.seller;\r\n\r\n        //  \r\n        payable(seller).transfer(msg.value);\r\n\r\n        //  \r\n        _transfer(seller, msg.sender, tokenId);\r\n        l.active = false;\r\n\r\n        emit NFTSold(tokenId, msg.sender, msg.value);\r\n    }\r\n\r\n    // 4)    (view)\r\n    function getBalance(address user) external view returns (uint256) {\r\n        return user.balance;\r\n    }\r\n\r\n    // override tokenURI\r\n    mapping(uint256 => string) private _tokenURIs;\r\n    function _setTokenURI(uint256 tokenId, string memory uri) internal {\r\n        _tokenURIs[tokenId] = uri;\r\n    }\r\n    function tokenURI(uint256 tokenId) public view override returns (string memory) {\r\n        return _tokenURIs[tokenId];\r\n    }\r\n}\r\n",
  "sourcePath": "C:\\ssafy\\S12P21C109\\contracts\\contracts\\SuperNFTMarketplace.sol",
  "compiler": {
    "name": "solc",
    "version": "0.8.17+commit.8df45f5f.Emscripten.clang"
  },
  "schemaVersion": "3.4.16",
  "updatedAt": "2025-04-10T16:19:46.009Z",
  "networkType": "ethereum",
  "devdoc": {
    "kind": "dev",
    "methods": {
      "approve(address,uint256)": {
        "details": "See {IERC721-approve}."
      },
      "balanceOf(address)": {
        "details": "See {IERC721-balanceOf}."
      },
      "getApproved(uint256)": {
        "details": "See {IERC721-getApproved}."
      },
      "isApprovedForAll(address,address)": {
        "details": "See {IERC721-isApprovedForAll}."
      },
      "name()": {
        "details": "See {IERC721Metadata-name}."
      },
      "owner()": {
        "details": "Returns the address of the current owner."
      },
      "ownerOf(uint256)": {
        "details": "See {IERC721-ownerOf}."
      },
      "renounceOwnership()": {
        "details": "Leaves the contract without owner. It will not be possible to call `onlyOwner` functions. Can only be called by the current owner. NOTE: Renouncing ownership will leave the contract without an owner, thereby disabling any functionality that is only available to the owner."
      },
      "safeTransferFrom(address,address,uint256)": {
        "details": "See {IERC721-safeTransferFrom}."
      },
      "safeTransferFrom(address,address,uint256,bytes)": {
        "details": "See {IERC721-safeTransferFrom}."
      },
      "setApprovalForAll(address,bool)": {
        "details": "See {IERC721-setApprovalForAll}."
      },
      "supportsInterface(bytes4)": {
        "details": "See {IERC165-supportsInterface}."
      },
      "symbol()": {
        "details": "See {IERC721Metadata-symbol}."
      },
      "tokenByIndex(uint256)": {
        "details": "See {IERC721Enumerable-tokenByIndex}."
      },
      "tokenOfOwnerByIndex(address,uint256)": {
        "details": "See {IERC721Enumerable-tokenOfOwnerByIndex}."
      },
      "tokenURI(uint256)": {
        "details": "See {IERC721Metadata-tokenURI}."
      },
      "totalSupply()": {
        "details": "See {IERC721Enumerable-totalSupply}."
      },
      "transferFrom(address,address,uint256)": {
        "details": "See {IERC721-transferFrom}."
      },
      "transferOwnership(address)": {
        "details": "Transfers ownership of the contract to a new account (`newOwner`). Can only be called by the current owner."
      }
    },
    "version": 1
  },
  "userdoc": {
    "kind": "user",
    "methods": {},
    "version": 1
  }
}