{
  "contractName": "WalletManager",
  "abi": [
    {
      "inputs": [],
      "stateMutability": "nonpayable",
      "type": "constructor"
    },
    {
      "anonymous": false,
      "inputs": [
        {
          "indexed": true,
          "internalType": "address",
          "name": "wallet",
          "type": "address"
        },
        {
          "indexed": false,
          "internalType": "string",
          "name": "publicKey",
          "type": "string"
        }
      ],
      "name": "WalletRegistered",
      "type": "event"
    },
    {
      "inputs": [
        {
          "internalType": "address",
          "name": "",
          "type": "address"
        }
      ],
      "name": "registered",
      "outputs": [
        {
          "internalType": "bool",
          "name": "",
          "type": "bool"
        }
      ],
      "stateMutability": "view",
      "type": "function",
      "constant": true
    },
    {
      "inputs": [
        {
          "internalType": "address",
          "name": "",
          "type": "address"
        }
      ],
      "name": "walletPublicKeys",
      "outputs": [
        {
          "internalType": "string",
          "name": "",
          "type": "string"
        }
      ],
      "stateMutability": "view",
      "type": "function",
      "constant": true
    },
    {
      "inputs": [
        {
          "internalType": "string",
          "name": "publicKey",
          "type": "string"
        }
      ],
      "name": "registerWallet",
      "outputs": [],
      "stateMutability": "nonpayable",
      "type": "function"
    },
    {
      "inputs": [
        {
          "internalType": "address",
          "name": "_wallet",
          "type": "address"
        },
        {
          "internalType": "string",
          "name": "publicKey",
          "type": "string"
        }
      ],
      "name": "adminRegisterWallet",
      "outputs": [],
      "stateMutability": "nonpayable",
      "type": "function"
    },
    {
      "inputs": [
        {
          "internalType": "address",
          "name": "wallet",
          "type": "address"
        }
      ],
      "name": "isWalletRegistered",
      "outputs": [
        {
          "internalType": "bool",
          "name": "",
          "type": "bool"
        }
      ],
      "stateMutability": "view",
      "type": "function",
      "constant": true
    },
    {
      "inputs": [
        {
          "internalType": "address",
          "name": "wallet",
          "type": "address"
        }
      ],
      "name": "getWalletInfo",
      "outputs": [
        {
          "internalType": "bool",
          "name": "isRegistered",
          "type": "bool"
        },
        {
          "internalType": "string",
          "name": "publicKey",
          "type": "string"
        }
      ],
      "stateMutability": "view",
      "type": "function",
      "constant": true
    }
  ],
  "bytecode": "0x608060405234801561001057600080fd5b506107a7806100206000396000f3fe608060405234801561001057600080fd5b50600436106100625760003560e01c806360c8a7031461006757806374b6068f1461007c5780637d5c19141461008f5780637f247e49146100b9578063b2dd5c07146100f5578063c0689f4714610118575b600080fd5b61007a6100753660046104af565b610138565b005b61007a61008a366004610502565b610222565b6100a261009d366004610544565b6102f4565b6040516100b09291906105ac565b60405180910390f35b6100e56100c7366004610544565b6001600160a01b031660009081526020819052604090205460ff1690565b60405190151581526020016100b0565b6100e5610103366004610544565b60006020819052908152604090205460ff1681565b61012b610126366004610544565b6103b0565b6040516100b091906105cf565b6001600160a01b03831660009081526020819052604090205460ff16156101a25760405162461bcd60e51b815260206004820152601960248201527815d85b1b195d08185b1c9958591e481c9959da5cdd195c9959603a1b60448201526064015b60405180910390fd5b6001600160a01b038316600090815260208181526040808320805460ff1916600190811790915590915290206101d9828483610681565b50826001600160a01b03167ffd8c98a09da86eba82da3f4067f073c6ef0f7138bc302e189386df00b87b836c8383604051610215929190610742565b60405180910390a2505050565b3360009081526020819052604090205460ff161561027e5760405162461bcd60e51b815260206004820152601960248201527815d85b1b195d08185b1c9958591e481c9959da5cdd195c9959603a1b6044820152606401610199565b33600090815260208181526040808320805460ff1916600190811790915590915290206102ac828483610681565b50336001600160a01b03167ffd8c98a09da86eba82da3f4067f073c6ef0f7138bc302e189386df00b87b836c83836040516102e8929190610742565b60405180910390a25050565b6001600160a01b038116600090815260208181526040808320546001909252909120805460ff909216916060919061032b906105f8565b80601f0160208091040260200160405190810160405280929190818152602001828054610357906105f8565b80156103a45780601f10610379576101008083540402835291602001916103a4565b820191906000526020600020905b81548152906001019060200180831161038757829003601f168201915b50505050509050915091565b600160205260009081526040902080546103c9906105f8565b80601f01602080910402602001604051908101604052809291908181526020018280546103f5906105f8565b80156104425780601f1061041757610100808354040283529160200191610442565b820191906000526020600020905b81548152906001019060200180831161042557829003601f168201915b505050505081565b80356001600160a01b038116811461046157600080fd5b919050565b60008083601f84011261047857600080fd5b50813567ffffffffffffffff81111561049057600080fd5b6020830191508360208285010111156104a857600080fd5b9250929050565b6000806000604084860312156104c457600080fd5b6104cd8461044a565b9250602084013567ffffffffffffffff8111156104e957600080fd5b6104f586828701610466565b9497909650939450505050565b6000806020838503121561051557600080fd5b823567ffffffffffffffff81111561052c57600080fd5b61053885828601610466565b90969095509350505050565b60006020828403121561055657600080fd5b61055f8261044a565b9392505050565b6000815180845260005b8181101561058c57602081850181015186830182015201610570565b506000602082860101526020601f19601f83011685010191505092915050565b82151581526040602082015260006105c76040830184610566565b949350505050565b60208152600061055f6020830184610566565b634e487b7160e01b600052604160045260246000fd5b600181811c9082168061060c57607f821691505b60208210810361062c57634e487b7160e01b600052602260045260246000fd5b50919050565b601f82111561067c57600081815260208120601f850160051c810160208610156106595750805b601f850160051c820191505b8181101561067857828155600101610665565b5050505b505050565b67ffffffffffffffff831115610699576106996105e2565b6106ad836106a783546105f8565b83610632565b6000601f8411600181146106e157600085156106c95750838201355b600019600387901b1c1916600186901b17835561073b565b600083815260209020601f19861690835b8281101561071257868501358255602094850194600190920191016106f2565b508682101561072f5760001960f88860031b161c19848701351681555b505060018560011b0183555b5050505050565b60208152816020820152818360408301376000818301604090810191909152601f909201601f1916010191905056fea264697066735822122063e331992932404673485ccc88e3d82ec24d1eb60724f3175d1a44b8898dda1b64736f6c63430008110033",
  "immutableReferences": {},
  "source": "// SPDX-License-Identifier: MIT\r\npragma solidity ^0.8.17;\r\n\r\ncontract WalletManager {\r\n    mapping(address => bool) public registered;\r\n    mapping(address => string) public walletPublicKeys;\r\n\r\n    event WalletRegistered(address indexed wallet, string publicKey);\r\n\r\n    constructor() {}\r\n\r\n    /**\r\n     * @dev     .\r\n     * msg.sender    .\r\n     * @param publicKey    (  )\r\n     */\r\n    function registerWallet(string calldata publicKey) external {\r\n        require(!registered[msg.sender], \"Wallet already registered\");\r\n        registered[msg.sender] = true;\r\n        walletPublicKeys[msg.sender] = publicKey;\r\n        emit WalletRegistered(msg.sender, publicKey);\r\n    }\r\n\r\n    /**\r\n     * @dev       .\r\n     * @param _wallet   \r\n     * @param publicKey  \r\n     */\r\n    function adminRegisterWallet(address _wallet, string calldata publicKey) external {\r\n        require(!registered[_wallet], \"Wallet already registered\");\r\n        registered[_wallet] = true;\r\n        walletPublicKeys[_wallet] = publicKey;\r\n        emit WalletRegistered(_wallet, publicKey);\r\n    }\r\n\r\n    /**\r\n     * @dev     .\r\n     * @param wallet   \r\n     * @return bool  \r\n     */\r\n    function isWalletRegistered(address wallet) external view returns (bool) {\r\n        return registered[wallet];\r\n    }\r\n\r\n    /**\r\n     * @dev    .\r\n     * @param wallet   \r\n     * @return isRegistered    , publicKey   (   )\r\n     */\r\n    function getWalletInfo(address wallet) external view returns (bool isRegistered, string memory publicKey) {\r\n        isRegistered = registered[wallet];\r\n        publicKey = walletPublicKeys[wallet];\r\n    }\r\n}\r\n",
  "sourcePath": "C:\\ssafy\\S12P21C109\\contracts\\contracts\\WalletManager.sol",
  "compiler": {
    "name": "solc",
    "version": "0.8.17+commit.8df45f5f.Emscripten.clang"
  },
  "schemaVersion": "3.4.16",
  "updatedAt": "2025-03-25T02:21:08.017Z",
  "networkType": "ethereum",
  "devdoc": {
    "kind": "dev",
    "methods": {
      "adminRegisterWallet(address,string)": {
        "details": "      .",
        "params": {
          "_wallet": "  ",
          "publicKey": " "
        }
      },
      "getWalletInfo(address)": {
        "details": "   .",
        "params": {
          "wallet": "  "
        },
        "returns": {
          "isRegistered": "   , publicKey   (   )"
        }
      },
      "isWalletRegistered(address)": {
        "details": "    .",
        "params": {
          "wallet": "  "
        },
        "returns": {
          "_0": "bool  "
        }
      },
      "registerWallet(string)": {
        "details": "    . msg.sender    .",
        "params": {
          "publicKey": "   (  )"
        }
      }
    },
    "version": 1
  },
  "userdoc": {
    "kind": "user",
    "methods": {},
    "version": 1
  }
}